:020000040800F2
:100000000000022025180008FD130008091400084C
:1000100015140008211400082D1400080000000029
:1000200000000000000000000000000071900008C7
:100030003914000800000000C192000847140008AD
:10004000751800087518000875180008751800085C
:10005000751800087518000875180008751800084C
:10006000751800087518000875180008751800083C
:10007000751800087518000875180008751800082C
:1000800075180008751800087518000800000000B1
:1000900000000000000000000000000061140008E3
:1000A00075180008751800087518000875180008FC
:1000B00075180008791400087518000875180008EC
:1000C000751800088D140008A114000875180008A0
:1000D00075180008B5140008751800080000000025
:1000E0007518000875180008751800080000000051
:1000F000000000000000000000000000751800086B
:100100000000000075180008751800087518000830
:1001100000000000000000000000000000000000DF
:10012000751800087518000875180008751800087B
:10013000751800080000000000000000000000002A
:10014000000000000000000000000000751800081A
:10015000751800087518000875180008751800084B
:100160007518000875180008000000000000000065
:10017000000000000000000000000000000000007F
:1001800000000000751800080000000000000000DA
:0801900075180008751800083D
:1001A00010B5054C237833B9044B13B10448AFF3B1
:1001B00000800123237010BD980200200000000081
:1001C000B00F010808B5034B1BB103490348AFF357
:1001D000008008BD000000009C020020B00F010854
:1001E00001F0FF01102A2BDB10F0070F08D010F8E8
:1001F000013B013A8B422DD010F0070F42B3F6D1EC
:10020000F0B441EA012141EA014122F007047FF004
:1002100000070023F0E80256083C85EA010586EA5B
:10022000010685FA47F5A3FA87F586FA47F6A5FA97
:1002300087F68EB9EED1F0BC01F0FF0102F00702A3
:1002400032B110F8013B013A83EA010313B1F8D14E
:100250000020704701387047002D06BF354603382F
:10026000073815F0010F07D1013015F4807F02BF68
:10027000013015F4C03F0130F0BC0138704700BFB9
:10028000034613F8012B002AFBD1181A01387047D6
:1002900081F0004102E000BF83F0004330B54FEA37
:1002A00041044FEA430594EA050F08BF90EA020FA4
:1002B0001FBF54EA000C55EA020C7FEA645C7FEA37
:1002C000655C00F0E2804FEA5454D4EB5555B8BF5A
:1002D0006D420CDD2C4480EA020281EA030382EACB
:1002E000000083EA010180EA020281EA0303362D5D
:1002F00088BF30BD11F0004F4FEA01314FF4801C30
:100300004CEA113102D0404261EB410113F0004F41
:100310004FEA03334CEA133302D0524263EB4303F8
:1003200094EA050F00F0A780A4F10104D5F1200E96
:100330000DDB02FA0EFC22FA05F2801841F10001F1
:1003400003FA0EF2801843FA05F359410EE0A5F1C5
:1003500020050EF1200E012A03FA0EFC28BF4CF0F6
:10036000020C43FA05F3C01851EBE37101F00045AC
:1003700007D54FF0000EDCF1000C7EEB00006EEBB9
:100380000101B1F5801F1BD3B1F5001F0CD3490843
:100390005FEA30004FEA3C0C04F101044FEA44529A
:1003A00012F5800F80F09A80BCF1004F08BF5FEA21
:1003B000500C50F1000041EB045141EA050130BD01
:1003C0005FEA4C0C404141EB0101013C28BFB1F513
:1003D000801FE9D291F0000F04BF01460020B1FA5E
:1003E00081F308BF2033A3F10B03B3F120020CDA31
:1003F0000C3208DD02F1140CC2F10C0201FA0CF00F
:1004000021FA02F10CE002F11402D8BFC2F1200C73
:1004100001FA02F120FA0CFCDCBF41EA0C01904029
:10042000E41AA2BF01EB0451294330BD6FEA040472
:100430001F3C1CDA0C340EDC04F11404C4F120025D
:1004400020FA04F001FA02F340EA030021FA04F36F
:1004500045EA030130BDC4F10C04C4F1200220FAC6
:1004600002F001FA04F340EA0300294630BD21FA04
:1004700004F0294630BD94F0000F83F4801306BFCA
:1004800081F480110134013D4EE77FEA645C18BFBE
:100490007FEA655C29D094EA050F08BF90EA020F55
:1004A00005D054EA000C04BF1946104630BD91EA4D
:1004B000030F1EBF0021002030BD5FEA545C05D150
:1004C0004000494128BF41F0004130BD14F580048F
:1004D0003CBF01F5801130BD01F0004545F0FE4103
:1004E00041F470014FF0000030BD7FEA645C1ABF38
:1004F000194610467FEA655C1CBF0B46024650EA6F
:10050000013406BF52EA033591EA030F41F400219A
:1005100030BD00BF90F0000F04BF0021704730B520
:100520004FF4806404F132044FF000054FF00001F5
:1005300050E700BF90F0000F04BF0021704730B5B6
:100540004FF4806404F1320410F0004548BF40428B
:100550004FF000013EE700BF42004FEAE2014FEAE0
:1005600031014FEA02701FBF12F07F4393F07F4FBB
:1005700081F06051704732F07F4208BF704793F0BE
:100580007F4F04BF41F40021704730B54FF46074D1
:1005900001F0004521F000411CE700BF50EA0102D4
:1005A00008BF704730B54FF000050AE050EA01027D
:1005B00008BF704730B511F0004502D5404261EBED
:1005C00041014FF4806404F132045FEA915C3FF42E
:1005D000D8AE4FF003025FEADC0C18BF03325FEACB
:1005E000DC0C18BF033202EBDC02C2F1200300FA7C
:1005F00003FC20FA02F001FA03FE40EA0E0021FAA1
:1006000002F11444BDE600BF70B54FF0FF0C4CF48E
:10061000E06C1CEA11541DBF1CEA135594EA0C0F40
:1006200095EA0C0F00F0DEF82C4481EA030621EA7B
:100630004C5123EA4C5350EA013518BF52EA0335B6
:1006400041F4801143F4801338D0A0FB02CE4FF068
:100650000005E1FB02E506F00042E0FB03E54FF098
:100660000006E1FB03569CF0000F18BF4EF0010E90
:10067000A4F1FF04B6F5007F64F5407404D25FEA8C
:100680004E0E6D4146EB060642EAC62141EA55513F
:100690004FEAC52040EA5E504FEACE2EB4F1FD0C81
:1006A00088BFBCF5E06F1ED8BEF1004F08BF5FEAFF
:1006B000500E50F1000041EB045170BD06F00046B1
:1006C00046EA010140EA020081EA0301B4EB5C045E
:1006D000C2BFD4EB0C0541EA045170BD41F4801156
:1006E0004FF0000E013C00F3AB8014F1360FDEBF7B
:1006F000002001F0004170BDC4F10004203C35DA57
:100700000C341BDC04F11404C4F1200500FA05F3D9
:1007100020FA04F001FA05F240EA020001F000427A
:1007200021F0004110EBD37021FA04F642EB0601F0
:100730005EEA430E08BF20EAD37070BDC4F10C041A
:10074000C4F1200500FA04F320FA05F001FA04F2DE
:1007500040EA020001F0004110EBD37041F10001CA
:100760005EEA430E08BF20EAD37070BDC4F12005D5
:1007700000FA05F24EEA020E20FA04F301FA05F23D
:1007800043EA020321FA04F001F0004121FA04F2E5
:1007900020EA020000EBD3705EEA430E08BF20EAB5
:1007A000D37070BD94F0000F0FD101F000464000EF
:1007B00041EB010111F4801F08BF013CF7D041EA71
:1007C000060195F0000F18BF704703F00046520075
:1007D00043EB030313F4801F08BF013DF7D043EA46
:1007E0000603704794EA0C0F0CEA135518BF95EAFC
:1007F0000C0F0CD050EA410618BF52EA4306D1D183
:1008000081EA030101F000414FF0000070BD50EAA1
:10081000410606BF1046194652EA430619D094EA2B
:100820000C0F02D150EA013613D195EA0C0F05D115
:1008300052EA03361CBF104619460AD181EA030169
:1008400001F0004141F0FE4141F470014FF0000021
:1008500070BD41F0FE4141F4780170BD70B54FF0BC
:10086000FF0C4CF4E06C1CEA11541DBF1CEA13553C
:1008700094EA0C0F95EA0C0F00F0A7F8A4EB05041E
:1008800081EA030E52EA03354FEA013100F0888015
:100890004FEA03334FF0805545EA131343EA1263DE
:1008A0004FEA022245EA111545EA10654FEA002693
:1008B0000EF000419D4208BF964244F1FD0404F54C
:1008C000407402D25B084FEA3202B61A65EB0305A8
:1008D0005B084FEA32024FF480104FF4002CB6EB65
:1008E000020E75EB030E22BFB61A754640EA0C00E5
:1008F0005B084FEA3202B6EB020E75EB030E22BF25
:10090000B61A754640EA5C005B084FEA3202B6EB65
:10091000020E75EB030E22BFB61A754640EA9C0024
:100920005B084FEA3202B6EB020E75EB030E22BFF4
:10093000B61A754640EADC0055EA060E18D04FEAB2
:10094000051545EA16754FEA06164FEAC30343EA52
:1009500052734FEAC2025FEA1C1CC0D111F4801F1F
:100960000BD141EA00014FF000004FF0004CB6E718
:1009700011F4801F04BF01430020B4F1FD0C88BFB7
:10098000BCF5E06F3FF6AFAEB5EB030C04BFB6EBC2
:10099000020C5FEA500C50F1000041EB045170BDB5
:1009A0000EF0004E4EEA113114EB5C04C2BFD4EBE2
:1009B0000C0541EA045170BD41F480114FF0000E66
:1009C000013C90E645EA060E8DE60CEA135594EAE2
:1009D0000C0F08BF95EA0C0F3FF43BAF94EA0C0FE5
:1009E0000AD150EA01347FF434AF95EA0C0F7FF45A
:1009F00025AF104619462CE795EA0C0F06D152EAAE
:100A000003353FF4FDAE1046194622E750EA410691
:100A100018BF52EA43067FF4C5AE50EA41047FF4A2
:100A20000DAF52EA43057FF4EBAE12E74FF0FF3C07
:100A300006E000BF4FF0010C02E000BF4FF0010CD8
:100A40004DF804CD4FEA410C7FEA6C5C4FEA430C51
:100A500018BF7FEA6C5C1BD001B050EA410C0CBFA0
:100A600052EA430C91EA030F02BF90EA020F002002
:100A7000704710F1000F91EA030F58BF994208BF69
:100A800090422CBFD8176FEAE37040F00100704726
:100A90004FEA410C7FEA6C5C02D150EA013C07D17D
:100AA0004FEA430C7FEA6C5CD6D152EA033CD3D0C8
:100AB0005DF8040B704700BF8446104662468C46C2
:100AC0001946634600E000BF01B5FFF7B7FF0028F5
:100AD00048BF10F1000F01BD4DF808EDFFF7F4FF1E
:100AE0000CBF012000205DF808FB00BF4DF808EDA9
:100AF000FFF7EAFF34BF012000205DF808FB00BFCC
:100B00004DF808EDFFF7E0FF94BF012000205DF8ED
:100B100008FB00BF4DF808EDFFF7CEFF94BF0120A2
:100B200000205DF808FB00BF4DF808EDFFF7C4FF9B
:100B300034BF012000205DF808FB00BF4FEA410CE4
:100B40007FEA6C5C02D150EA013C0AD14FEA430CC7
:100B50007FEA6C5C02D152EA033C02D14FF0000004
:100B600070474FF0010070474FEA410212F5001242
:100B700015D211D56FF47873B3EB625212D94FEAE4
:100B8000C12343F0004343EA505311F0004F23FACE
:100B900002F018BF404270474FF00000704750EA23
:100BA000013005D111F0004008BF6FF000407047E0
:100BB0004FF00000704700BF4A0011D212F500123A
:100BC00011D20DD56FF47873B3EB62520ED44FEAA5
:100BD000C12343F0004343EA505323FA02F0704725
:100BE0004FF00000704750EA013002D14FF0FF3063
:100BF00070474FF00000704753B94AB9002908BF49
:100C000000281CBF4FF0FF314FF0FF3000F0BEB99D
:100C1000ADF1080C6DE904CE00F03CF8DDF804E01D
:100C2000DDE9022304B0704738B5002200230446F2
:100C30000D46FFF75BFF28B920462946BDE838403E
:100C400000F00AB8204605F1004100F005F84042E6
:100C500061EB410138BD00BFD0B50C4B0022064608
:100C60000F46FFF7D1FCFFF7A7FF0446FFF752FC42
:100C7000074B0022FFF7C8FC02460B4630463946B8
:100C8000FFF70AFBFFF798FF2146D0BD0000F03DBB
:100C90000000F0412DE9F047089D8E460446884645
:100CA000002B4AD18A42174662D9B2FA82F64EB177
:100CB000C6F1200301FA06F820FA03F3B74043EA2D
:100CC0000808B4404FEA174E1FFA87FCB8FBFEF144
:100CD000230C0EFB118843EA084301FB0CF29A42F5
:100CE00009D9FB1801F1FF3080F0EA809A4240F206
:100CF000E78002393B449A1AA3B2B2FBFEF00EFB26
:100D0000102243EA024300FB0CFC9C4509D9FB1866
:100D100000F1FF3280F0D6809C4540F2D3803B4406
:100D2000023840EA0140A3EB0C0300211DB1F3405F
:100D30000022C5E90032BDE8F0878B4205D90DB12C
:100D4000C5E9000100210846F5E7B3FA83F100295F
:100D500046D1734502D3824200F20581841A6EEBBC
:100D6000030201209046002DE5D0C5E90048E2E7E6
:100D7000002A00F09080B2FA82F6002E40F0A480A3
:100D80008A1A030C4FEA174E80B2BCB20121B2FBA3
:100D9000FEFC0EFB1C2243EA024304FB0CF29A42C7
:100DA00007D9FB180CF1FF3802D29A4200F2E0801A
:100DB000C4469B1AB3FBFEF20EFB123340EA034318
:100DC00002FB04F49C4207D9FB1802F1FF3002D267
:100DD0009C4200F2CA8002461B1B42EA0C40A5E777
:100DE000C1F120068B4022FA06F71F430EFA01F4E8
:100DF00020FA06F32EFA06FE4FEA1749234300FABB
:100E000001F81FFA87FCBEFBF9F01C0C09FB10EE81
:100E100044EA0E4400FB0CFEA64502FA01F209D991
:100E20003C1900F1FF3A80F09C80A64540F2998081
:100E300002383C44A4EB0E041FFA83FEB4FBF9F322
:100E400009FB13444EEA044403FB0CFCA44508D9F7
:100E50003C1903F1FF3E80F08280A4457FD9023B1C
:100E60003C4443EA0040A4EB0C04A0FB02EC6445C4
:100E70007346E14662D35FD05DB1B8EB030264EB29
:100E8000090404FA06F622FA01F31E43CC40C5E930
:100E9000006400214FE7B1FBF2FC010C41EA0E4176
:100EA00080B240EA01423B4638463C46B846BE4620
:100EB0002026B1FBF7F1A2EB080241EA0C4166E7FC
:100EC000014618E710462CE7C6F120022EFA02F37D
:100ED000B740B14020FA02F24FEA174E0A43B3FB83
:100EE000FEF8BCB20EFB1833110C41EA034108FBBB
:100EF00004F9B04089454FEA104380B23ED97918D1
:100F000008F1FF3C01D289451FD8A1EB0901B1FBD3
:100F1000FEF909FB04F80EFB191192B242EA0142F4
:100F2000424529D2BA1809F1FF31C4D24245C2D292
:100F3000A9F102013A44BEE7F0459DD2BEEB02039F
:100F40006CEB070C0138E14696E7A7EB0909494429
:100F5000A8F1020CB1FBFEF909FB04F8DBE77346CC
:100F60007FE7504666E70846FDE63B44023A33E732
:100F7000ACF1020C3B441CE749469CE7A1EB09019C
:100F8000C446B1FBFEF909FB04F8C4E7704700BF93
:100F900080B500AF044A0021044805F08EFB0346EB
:100FA000034A136000BF80BDF01A0108B50F0008A6
:100FB000B402002080B582B000AF786009F06AF812
:100FC000012005F00DFCFBE780B58AB000AF07F10A
:100FD000140300221A605A609A60DA601A610023D2
:100FE0003B61584B1B6B574A43F004031363554B4B
:100FF0001B6B03F004033B613B690023FB60514B17
:101000001B6B504A43F0800313634E4B1B6B03F082
:101010008003FB60FB680023BB604A4B1B6B494AA3
:1010200043F001031363474B1B6B03F00103BB60E9
:10103000BB6800237B60434B1B6B424A43F00203B7
:101040001363404B1B6B03F002037B607B68002340
:101050003B603C4B1B6B3B4A43F008031363394B2B
:101060001B6B03F008033B603B68002220213648DD
:1010700001F000F84FF6FF737B610323BB6100238F
:10108000FB6107F114031946304800F057FE0323B3
:101090007B610323BB610023FB6107F11403194645
:1010A0002B4800F04BFE4FF693037B610323BB619B
:1010B0000023FB6107F114031946234800F03EFEAC
:1010C00020237B610123BB610223FB6100233B6280
:1010D00007F1140319461C4800F030FE4FF4A073CA
:1010E0007B614FF48813BB610223FB6107F114039A
:1010F0001946154800F022FE4FF2FF137B610323CF
:10110000BB610023FB6107F114031946114800F08D
:1011100015FE04237B610323BB610023FB6107F100
:10112000140319460C4800F009FE0022052117207F
:1011300000F029FD172000F042FD00BF2837BD4612
:1011400080BD00BF0038024000000240000802409D
:10115000001C024000040240000C024080B500AFB9
:10116000124B134A1A60114B124A5A600F4B00225D
:101170009A600E4B0022DA600C4B4FF480421A61E9
:101180000A4B00225A61094B00229A61074B002248
:10119000DA61064B00221A62044800F0B7FF0346EA
:1011A000002B01D000F0F6F800BF80BDB80200208F
:1011B00000580040A086010080B58AB000AF78607A
:1011C00007F1140300221A605A609A60DA601A610B
:1011D0007B681B682A4A93424DD100233B61294B0F
:1011E0001B6B284A43F002031363264B1B6B03F06F
:1011F00002033B613B694FF480637B611223BB6157
:101200000023FB6103233B6204237B6207F1140389
:1012100019461D4800F092FD4FF400737B611223C4
:10122000BB610023FB6103233B6209237B6207F15F
:1012300014031946144800F081FD0023FB60114B94
:101240001B6C104A43F4800313640E4B1B6C03F4B5
:101250008003FB60FB6800220521212000F093FC45
:10126000212000F0ACFC00220521222000F08BFCA4
:10127000222000F0A4FC00BF2837BD4680BD00BF7F
:1012800000580040003802400004024080B582B09F
:1012900000AF7860391D4FF6FF730122034804F058
:1012A00087F97B6818460837BD4680BDA00300203B
:1012B00080B500AF00F0E0FA00F00EF8FFF784FE12
:1012C00000F002FAFFF74AFF05F098F9FFF760FE19
:1012D00005F0B8F900BFFDE780B594B000AF07F1A5
:1012E00020033022002118460CF086FD07F10C0384
:1012F00000221A605A609A60DA601A610023BB60AB
:10130000224B1B6C214A43F0805313641F4B1B6C10
:1013100003F08053BB60BB6800237B601C4B1B68E1
:101320001B4A43F440431360194B1B6803F44043CA
:101330007B607B6802233B620123FB6210233B63DB
:101340000023BB6307F12003184603F013F803469C
:10135000002B01D000F01EF80F23FB6000233B613F
:1013600000237B610023BB610023FB6107F10C03B9
:101370000021184603F076FA0346002B01D000F056
:1013800009F800BF5037BD4680BD00BF003802409D
:101390000070004080B500AF72B600BF00F01DFCC9
:1013A00000BFFDE780B582B000AF00237B60124B29
:1013B0005B6C114A43F4804353640F4B5B6C03F442
:1013C00080437B607B6800233B600B4B1B6C0A4AAD
:1013D00043F080531364084B1B6C03F080533B6055
:1013E0003B6800220F216FF0010000F0CCFB00BF32
:1013F0000837BD4680BD00BF0038024080B500AF51
:1014000000F0EBFB00BFFDE780B500AF00F0E5FBAF
:1014100000BFFDE780B500AF00F0DFFB00BFFDE7D8
:1014200080B500AF00F0D9FB00BFFDE780B500AF8D
:1014300000F0D3FB00BFFDE780B400AF00BFBD46A6
:101440005DF8047B704780B500AF00F067FA07F0E5
:10145000AFF80346012B01D007F066FF00BF80BD47
:1014600080B500AF402000F039FE4FF4807000F0EE
:1014700035FE00BF80BD000080B500AF024803F01C
:10148000B2FC00BF80BD00BF1003002080B500AFDC
:10149000024801F02BFA00BF80BD00BFB802002057
:1014A00080B500AF024801F092FB00BF80BD00BFD5
:1014B000B802002080B500AF024804F029F900BF4F
:1014C00080BD00BF5803002080B400AF0123184640
:1014D000BD465DF8047B704780B582B000AF786090
:1014E00039600CF033FD034616221A604FF0FF33CB
:1014F00018460837BD4680BD80B582B000AF786021
:101500004FF0FF317868FFF7E7FF00BFFDE780B5D8
:1015100086B000AFF860B9607A6000237B610AE0B2
:10152000AFF300800146BB685A1CBA60CAB21A7099
:101530007B6901337B617A697B689A42F0DB7B6867
:1015400018461837BD4680BD80B586B000AFF8603C
:10155000B9607A6000237B6109E0BB685A1CBA60FD
:101560001B781846FFF792FE7B6901337B617A692D
:101570007B689A42F1DB7B6818461837BD4680BD10
:1015800080B483B000AF78604FF0FF3318460C375B
:10159000BD465DF8047B704780B483B000AF7860CF
:1015A00039603B684FF400525A60002318460C37EC
:1015B000BD465DF8047B704780B483B000AF7860AF
:1015C000012318460C37BD465DF8047B704780B494
:1015D00085B000AFF860B9607A6000231846143710
:1015E000BD465DF8047B704780B586B000AF78607B
:1015F000144A154BD31A7B617B693B61134B1B6803
:10160000002B02D1114B124A1A60104B1A687B68EA
:1016100013443A699A4207D20CF098FC03460C2214
:101620001A604FF0FF3309E0084B1B68FB60074B63
:101630001A687B681344054A1360FB68184618371C
:10164000BD4680BD00000220000400000C03002005
:10165000C871002080B400AF064BD3F88830054A2B
:1016600043F47003C2F8883000BFBD465DF8047BC8
:10167000704700BF00ED00E080B584B000AF786037
:101680007B681B680E4A934215D10023FB600D4B0B
:101690001B6C0C4A43F0020313640A4B1B6C03F0EF
:1016A0000203FB60FB68002205211D2000F06BFA9D
:1016B0001D2000F084FA00BF1037BD4680BD00BF7A
:1016C000000400400038024080B500AF114B124AC0
:1016D0001A60104B4FF4E1325A600E4B00229A60B0
:1016E0000C4B0022DA600B4B00221A61094B0C22D2
:1016F0005A61084B00229A61064B0022DA610548C4
:1017000003F006FF0346002B01D0FFF743FE00BFA6
:1017100080BD00BFA00300200044004080B58CB015
:1017200000AF786007F11C0300221A605A609A60CB
:10173000DA601A617B681B68364A934235D1002310
:10174000BB61354B5B6C344A43F010035364324B3E
:101750005B6C03F01003BB61BB6900237B612E4B04
:101760001B6B2D4A43F0010313632B4B1B6B03F0E0
:1017700001037B617B694FF4C063FB6102233B6221
:1017800000237B620323BB620723FB6207F11C0378
:101790001946224800F0D2FA00220521252000F047
:1017A000F2F9252000F00BFA30E07B681B681C4A38
:1017B00093422BD100233B61174B1B6C164A43F419
:1017C00000331364144B1B6C03F400333B613B691F
:1017D0000023FB60104B1B6B0F4A43F001031363A4
:1017E0000D4B1B6B03F00103FB60FB680C23FB61DB
:1017F00002233B6200237B620323BB620723FB625D
:1018000007F11C031946054800F098FA00BF30376D
:10181000BD4680BD0010014000380240000002407B
:1018200000440040DFF834D0FFF714FF0C480D49A6
:101830000D4A002302E0D458C4500433C4188C422B
:10184000F9D30A4A0A4C002301E013600432A24291
:10185000FBD30CF081FBFFF72BFD7047000002204B
:101860000000002098020020D820010898020020E3
:10187000C8710020FEE7000080B500AF0E4B1B686A
:101880000D4A43F4007313600B4B1B680A4A43F480
:1018900080631360084B1B68074A43F4807313602E
:1018A000032000F065F90F2000F008F8FFF77AFD3B
:1018B0000023184680BD00BF003C024080B582B0C6
:1018C00000AF7860124B1A68124B1B7819464FF420
:1018D0007A73B3FBF1F3B2FBF3F3184600F081F92E
:1018E0000346002B01D001230EE07B680F2B0AD8A2
:1018F000002279684FF0FF3000F045F9064A7B6816
:101900001360002300E0012318460837BD4680BD60
:1019100000000020080000200400002080B400AF78
:10192000064B1B781A46064B1B681344044A136087
:1019300000BFBD465DF8047B704700BF0800002073
:10194000E803002080B400AF034B1B681846BD4677
:101950005DF8047B704700BFE803002080B584B0C9
:1019600000AF7860FFF7EEFFB8607B68FB60FB6854
:10197000B3F1FF3F05D00A4B1B781A46FB681344AE
:10198000FB6000BFFFF7DEFF0246BB68D31AFA68B0
:101990009A42F7D800BF00BF1037BD4680BD00BFD8
:1019A0000800002080B485B000AF78607B6803F049
:1019B0000703FB600C4BDB68BB60BA684FF6FF03A4
:1019C0001340BB60FB681A02BB68134343F0BF635C
:1019D00043F40033BB60044ABB68D36000BF1437D4
:1019E000BD465DF8047B704700ED00E080B400AFB9
:1019F000044BDB681B0A03F007031846BD465DF87D
:101A0000047B704700ED00E080B483B000AF034674
:101A1000FB7197F90730002B0BDBFB7903F01F02FA
:101A2000074997F907305B09012000FA02F241F8F3
:101A3000232000BF0C37BD465DF8047B704700BF14
:101A400000E100E080B483B000AF03463960FB7171
:101A500097F90730002B0ADB3B68DAB20C4997F99B
:101A600007301201D2B20B4483F800230AE03B682E
:101A7000DAB20849FB7903F00F03043B1201D2B23A
:101A80000B441A7600BF0C37BD465DF8047B7047E7
:101A900000E100E000ED00E080B489B000AFF86044
:101AA000B9607A60FB6803F00703FB61FB69C3F16F
:101AB0000703042B28BF0423BB61FB690433062BF7
:101AC00002D9FB69033B00E000237B614FF0FF324A
:101AD000BB6902FA03F3DA43BB681A407B699A4098
:101AE0004FF0FF317B6901FA03F3D9437B680B4068
:101AF000134318462437BD465DF8047B7047000049
:101B000080B400AFBFF34F8F00BF064BDB6803F418
:101B1000E0620449044B1343CB60BFF34F8F00BF17
:101B200000BFFDE700ED00E00400FA0580B582B0DB
:101B300000AF78607B68013BB3F1807F01D3012364
:101B40000FE00A4A7B68013B53600F214FF0FF30E2
:101B5000FFF778FF054B00229A60044B07221A60BA
:101B6000002318460837BD4680BD00BF10E000E0E6
:101B700080B582B000AF78607868FFF713FF00BFD0
:101B80000837BD4680BD80B586B000AF0346B9605A
:101B90007A60FB7300237B61FFF728FF78617A6826
:101BA000B9687869FFF778FF024697F90F30114658
:101BB0001846FFF747FF00BF1837BD4680BD80B508
:101BC00082B000AF0346FB7197F907301846FFF764
:101BD0001BFF00BF0837BD4680BD80B500AFFFF7D3
:101BE0008FFF80B582B000AF78607868FFF79EFF06
:101BF000034618460837BD4680BD80B584B000AFA7
:101C000078607B689B6DFB60FFF79CFEB8607B682B
:101C100093F83530DBB2022B08D07B6880225A65FE
:101C20007B68002283F83420012352E07B681B6824
:101C30001A687B681B6822F016021A607B681B68B2
:101C40005A697B681B6822F080025A617B681B6CB2
:101C5000002B03D17B689B6C002B07D07B681B6833
:101C60001A687B681B6822F008021A607B681B6890
:101C70001A687B681B6822F001021A6013E0FFF704
:101C800061FE0246BB68D31A052B0CD97B68202263
:101C90005A657B68032283F835207B68002283F82D
:101CA0003420032315E07B681B681B6803F00103E5
:101CB000002BE4D17B68DB6D3F229A40FB689A6081
:101CC0007B68012283F835207B68002283F834206A
:101CD000002318461037BD4680BD80B483B000AFE6
:101CE00078607B6893F83530DBB2022B04D07B68D8
:101CF00080225A6501230CE07B68052283F8352099
:101D00007B681B681A687B681B6822F001021A60F6
:101D1000002318460C37BD465DF8047B704780B43D
:101D200083B000AF78607B6893F83530DBB218463B
:101D30000C37BD465DF8047B7047000080B489B065
:101D400000AF7860396000237B6100233B61002392
:101D5000BB610023FB6159E10122FB6902FA03F335
:101D60007B613B681B687A6913403B613A697B6918
:101D70009A4240F048813B685B6803F00303012B03
:101D800005D03B685B6803F00303022B30D17B680E
:101D90009B68BB61FB695B00032202FA03F3DB4330
:101DA000BA691340BB613B68DA68FB695B0002FA01
:101DB00003F3BA691343BB617B68BA699A607B68B5
:101DC0005B68BB610122FB6902FA03F3DB43BA697A
:101DD0001340BB613B685B681B0903F00102FB69B0
:101DE00002FA03F3BA691343BB617B68BA695A60AC
:101DF0003B685B6803F00303032B17D07B68DB6849
:101E0000BB61FB695B00032202FA03F3DB43BA699F
:101E10001340BB613B689A68FB695B0002FA03F3FD
:101E2000BA691343BB617B68BA69DA603B685B6877
:101E300003F00303022B23D1FB69DA087B68083225
:101E400053F82230BB61FB6903F007039B000F22AC
:101E500002FA03F3DB43BA691340BB613B681A69BA
:101E6000FB6903F007039B0002FA03F3BA6913430B
:101E7000BB61FB69DA087B680832B96943F8221054
:101E80007B681B68BB61FB695B00032202FA03F3FA
:101E9000DB43BA691340BB613B685B6803F0030234
:101EA000FB695B0002FA03F3BA691343BB617B6809
:101EB000BA691A603B685B6803F44033002B00F09A
:101EC000A2800023FB60574B5B6C564A43F480436F
:101ED0005364544B5B6C03F48043FB60FB68524AD1
:101EE000FB699B08023352F82330BB61FB6903F0A6
:101EF00003039B000F2202FA03F3DB43BA6913408A
:101F0000BB617B68494A934219D07B68484A934237
:101F100013D07B68474A93420DD07B68464A934270
:101F200007D07B68454A934201D1042308E0072388
:101F300006E0032304E0022302E0012300E0002383
:101F4000FA6902F0030292009340BA691343BB613D
:101F50003549FB699B080233BA6941F82320384BA5
:101F60009B68BB613B69DB43BA691340BB613B685B
:101F70005B6803F48013002B03D0BA693B691343F9
:101F8000BB612F4ABB6993602D4BDB68BB613B692A
:101F9000DB43BA691340BB613B685B6803F4001321
:101FA000002B03D0BA693B691343BB61244ABB6968
:101FB000D360234B5B68BB613B69DB43BA69134069
:101FC000BB613B685B6803F40033002B03D0BA6944
:101FD0003B691343BB611A4ABB695360184B1B68CA
:101FE000BB613B69DB43BA691340BB613B685B681B
:101FF00003F48033002B03D0BA693B691343BB6100
:102000000F4ABB691360FB690133FB61FB690F2B4E
:102010007FF6A2AE00BF00BF2437BD465DF8047B4B
:10202000704700BF00380240003801400000024005
:102030000004024000080240000C02400010024070
:10204000003C014080B485B000AF78600B467B80D7
:102050007B681A697B881340002B02D00123FB7335
:1020600001E00023FB73FB7B18461437BD465DF887
:10207000047B704780B483B000AF78600B467B80F0
:1020800013467B707B78002B03D07A887B689A613B
:1020900003E07B881A047B689A6100BF0C37BD4659
:1020A0005DF8047B704780B485B000AF78600B4664
:1020B0007B807B685B69FB607A88FB6813401A044D
:1020C000FB68D9437B880B401A437B689A6100BF49
:1020D0001437BD465DF8047B7047000080B582B0C0
:1020E00000AF0346FB80084B5A69FB881340002B66
:1020F00006D0054AFB885361FB88184607F0BCFBF5
:1021000000BF0837BD4680BD003C014080B584B0AB
:1021100000AF78607B68002B01D101232BE17B6845
:1021200093F83D30DBB2002B06D17B68002283F8A8
:102130003C207868FFF740F87B68242283F83D2034
:102140007B681B681A687B681B6822F001021A60B2
:102150007B681B681A687B681B6842F400421A603F
:102160007B681B681A687B681B6822F400421A604F
:1021700002F030FDF8607B685B68814A934207D8C3
:10218000FB68804A934294BF01230023DBB206E040
:10219000FB687D4A934294BF01230023DBB2002BEE
:1021A00001D00123E7E0FB68784AA2FB03239B0CE4
:1021B000BB607B681B685B6823F03F017B681B6822
:1021C000BA680A435A607B681B681B6A23F03F01A8
:1021D0007B685B686A4A934202D8BB68013309E0B6
:1021E000BB684FF4967202FB03F3694AA2FB032318
:1021F0009B0901337A6812680B4313627B681B6882
:10220000DB6923F44F4222F0FF027B685B685C4984
:102210008B4219D8FB68591E7B685B685B00B1FB79
:10222000F3F3591C40F6FC730B40002B0AD0FB68FB
:10223000591E7B685B685B00B1FBF3F30133C3F3AA
:102240000B0351E004234FE07B689B68002B11D106
:10225000FB68581E7B6859680B465B000B44B0FB5B
:10226000F3F30133C3F30B03002B0CBF0123002353
:10227000DBB212E0FB68581E7B6859680B469B0076
:102280000B4499000B44B0FBF3F30133C3F30B038E
:10229000002B0CBF01230023DBB2002B01D0012354
:1022A00022E07B689B68002B0ED1FB68581E7B6880
:1022B00059680B465B000B44B0FBF3F30133C3F3E7
:1022C0000B0343F400430FE0FB68581E7B6859681A
:1022D0000B469B000B4499000B44B0FBF3F3013316
:1022E000C3F30B0343F44043796809681343CB619C
:1022F0007B681B681B6823F0C0017B68DA697B6818
:102300001B6A1A437B681B680A431A607B681B6858
:102310009B6823F4034323F0FF037A6811697A680A
:10232000D26811437A6812680B4393607B681B681C
:10233000DB6823F0FF017B685A697B689B691A435D
:102340007B681B680A43DA607B681B681A687B68D5
:102350001B6842F001021A607B6800221A647B68E5
:10236000202283F83D207B6800221A637B680022CC
:1023700083F83E20002318461037BD4680BD00BFBD
:10238000A08601007F841E00FF083D0083DE1B4302
:10239000D34D621080B483B000AF78607B681B6857
:1023A0005B6903F08003802B03D17B681B680022EC
:1023B0001A6100BF0C37BD465DF8047B7047000012
:1023C00080B487B000AFF860084611461A4603464D
:1023D0007B810B463B811346FB8000237B61FB68BE
:1023E00093F83D30DBB2202B40F08A80484B1B68CD
:1023F000DB08484AA2FB03231A0A13469B00134436
:102400009A0013447B617B69013B7B617B69002BF4
:1024100012D1FB6800221A63FB68202283F83D205A
:10242000FB68002283F83E20FB681B6C43F020020F
:10243000FB681A64022364E0FB681B689B6903F075
:102440000203022BDFD0FB6893F83C30012B01D153
:10245000022356E0FB68012283F83C20FB681B68DE
:102460001B6803F00103012B07D0FB681B681A6887
:10247000FB681B6842F001021A60FB681B681A685F
:10248000FB681B6822F400621A60FB68212283F853
:102490003D20FB68402283F83E20FB6800221A643E
:1024A000FB683A6A5A62FB68BA8C5A85FB685B8D96
:1024B0009AB2FB681A85FB68174ADA627A89FB6868
:1024C0005A643A89FB689A64FA88FB68DA64FB68A4
:1024D00000221A65FB681B681A68FB681B6842F4D7
:1024E00080721A60FB68002283F83C20FB681B683E
:1024F0005A68FB681B6842F4E0625A60002300E0FF
:10250000022318461C37BD465DF8047B704700BFA8
:102510000000002089B5F8140000FFFF80B487B0E8
:1025200000AFF860084611461A4603467B810B4609
:102530003B811346FB8000237B61FB6893F83D30B1
:10254000DBB2202B40F096804E4B1B68DB084E4AD6
:10255000A2FB03231A0A13469B0013449A00134458
:102560007B617B69013B7B617B69002B12D1FB683E
:1025700000221A63FB68202283F83D20FB680022BA
:1025800083F83E20FB681B6C43F02002FB681A6452
:10259000022370E0FB681B689B6903F00203022BB7
:1025A000DFD0FB6893F83C30012B01D1022362E0BD
:1025B000FB68012283F83C20FB681B681B6803F062
:1025C0000103012B07D0FB681B681A68FB681B68B6
:1025D00042F001021A60FB681B681A68FB681B68FE
:1025E00022F400621A60FB68222283F83D20FB6817
:1025F000402283F83E20FB6800221A64FB683A6A96
:102600005A62FB68BA8C5A85FB685B8D9AB2FB688C
:102610001A85FB681D4ADA627A89FB685A643A892E
:10262000FB689A64FA88FB68DA64FB6800221A6522
:10263000FB681B681A68FB681B6842F480621A60BA
:10264000FB681B681A68FB681B6842F480721A609A
:10265000FB68002283F83C20FB681B8D002B07D011
:10266000FB681B685A68FB681B6842F4E0625A60AA
:10267000002300E0022318461C37BD465DF8047BAA
:10268000704700BF0000002089B5F8140000FFFF6C
:1026900080B58AB002AFF8607A603B600B467B8100
:1026A000FFF750F9F8610023BB61FB6893F83D30F8
:1026B000DBB2202B40F01181FB690093192301222A
:1026C0008849F86801F08EFD0346002B01D00223F3
:1026D00004E1FB6893F83C30012B01D10223FDE0BB
:1026E000FB68012283F83C20FB681B681B6803F031
:1026F0000103012B07D0FB681B681A68FB681B6885
:1027000042F001021A60FB681B681A68FB681B68CC
:1027100022F400621A60FB68242283F83D20FB68E3
:1027200000221A64FB68704ADA62FB681B681A6848
:10273000FB681B6842F480721A60FB6900933B6877
:1027400000224FF00111F86801F04CFD0346002B08
:102750000DD0FB681B681B6803F48073B3F5807FA2
:1027600003D1FB684FF400721A640323B6E07B893F
:10277000DBB21A46FB681B6802F0FE021A61FFF723
:10278000E1F8F861FB681B685B6903F00203022B48
:102790000CBF01230023DBB2FB75FB681B685B6980
:1027A00003F48063B3F5806F0CBF01230023DBB219
:1027B000BB7525E0FFF7C6F80246FB69D31A3A68F5
:1027C0009A4202D33B68002B03D1FB68A02283F816
:1027D0003D20FB681B685B6903F00203022B0CBF02
:1027E00001230023DBB2FB75FB681B685B6903F404
:1027F0008063B3F5806F0CBF01230023DBB2BB7590
:10280000FB6893F83D30DBB2A02B05D0FB7D002B9D
:1028100002D1BB7D002BCDD0FB68202283F83D2068
:10282000FB681B685B6903F00203022B29D1FB687C
:102830001B681A68FB681B6842F400721A60002368
:102840003B61FB681B685B693B61FB681B689B69BC
:102850003B613B69FB690093192301222149F86818
:1028600001F0C0FC0346002B01D0012336E0FB68D9
:10287000202283F83D20FB68002283F83C200023BF
:102880002CE0FB681B681A68FB681B6842F4007246
:102890001A60FB681B686FF480625A61FB690093E1
:1028A000192301220F49F86801F09CFC0346002B14
:1028B00001D0012312E0BB690133BB61BA697B68B7
:1028C0009A42FFF432AFFB68202283F83D20FB6878
:1028D000002283F83C20012300E002231846203721
:1028E000BD4680BD020010000000FFFF80B588B02B
:1028F00000AF78600023BB617B681B685B687B610D
:102900007B68DB6A3B617B6893F83E30FB737B68D6
:1029100093F83D30BB73FB7B102B03D0FB7B402B2C
:1029200040F0C1807B681B689B69BB617B681B684A
:102930005B69FB61FB6903F00103002B0DD13B696F
:10294000B3F52A0F03D03B69B3F12A4F01D101231C
:1029500000E00023012B00F03281FB6903F001034A
:10296000002B0CD07B695B0A03F00103002B06D01F
:10297000786801F0E3FC786800F06DFD92E0FB6997
:10298000DB0803F00103002B09D07B695B0A03F02D
:102990000103002B03D0786800F0E3FD82E0FB69BF
:1029A0005B0803F00103002B09D07B695B0A03F08D
:1029B0000103002B03D0786800F0FDFD72E0BB69D5
:1029C0009B0803F00103002B3BD07B681B685B680E
:1029D00003F40063B3F5006F00F0F380FB69DB09DB
:1029E00003F00103002B0FD07B699B0A03F0010366
:1029F000002B09D0FB699B0803F00103002B03D1D6
:102A0000786800F0C1F94DE0FB699B0803F0010311
:102A1000002B00F0D6807B695B0A03F00103002BDA
:102A200000F0CF80BB7B212B03D1786800F048FAFF
:102A3000C7E0FB7B402B40F0C480786800F0B6FA1A
:102A4000BFE07B681B685B6803F40063B3F5006F4D
:102A500000F0B780FB699B0903F00103002B0FD046
:102A60007B699B0A03F00103002B09D0FB699B08DB
:102A700003F00103002B03D1786800F02FFB11E075
:102A8000FB699B0803F00103002B00F09A807B692F
:102A90005B0A03F00103002B00F09380786800F0DC
:102AA000E5FB8EE08DE07B681B6C002B04D07B681F
:102AB0001B685B69FB6107E07B681B689B69BB6106
:102AC0007B681B685B69FB61FB695B0803F00103C2
:102AD000002B12D07B695B0A03F00103002B0CD0A2
:102AE0007B681B6C002B03D07B681B689B69BB61F8
:102AF000B969786800F0AEFF66E0FB691B0903F076
:102B00000103002B09D07B695B0A03F00103002B52
:102B100003D0786800F0E8FF56E0BB7B212B02D0A1
:102B2000BB7B292B25D1FB69DB0903F00103002BBB
:102B30000FD07B699B0A03F00103002B09D0FB69CE
:102B40009B0803F00103002B03D1786800F0C4FE5A
:102B500039E0FB699B0803F00103002B33D07B694C
:102B60005B0A03F00103002B2DD0786800F0F1FE22
:102B700029E0FB699B0903F00103002B0FD07B695F
:102B80009B0A03F00103002B09D0FB699B0803F0AB
:102B90000103002B03D1786800F0FCFE14E0FB6910
:102BA0009B0803F00103002B0ED07B695B0A03F046
:102BB0000103002B08D0786800F02AFF04E000BF72
:102BC00002E000BF00E000BF2037BD4680BD80B5F9
:102BD0008AB000AF78607B681B685B693B627B688A
:102BE0001B685B68FB6100237B627B6893F83E3067
:102BF000FB763B6A1B0A03F00103002B0ED0FB6936
:102C00001B0A03F00103002B08D07B6A43F0010389
:102C10007B627B681B686FF480725A613B6A5B0A57
:102C200003F00103002B0ED0FB691B0A03F0010324
:102C3000002B08D07B6A43F002037B627B681B6831
:102C40006FF400725A613B6A9B0A03F00103002B88
:102C50003FD0FB691B0A03F00103002B39D0FB7E38
:102C6000BB767B685B8D9BB27B617B6893F83D3064
:102C7000FB747B681B6BFB60BB7E202B12D17B69D6
:102C8000002B0FD1FB7C212B08D0FB7C292B05D0FE
:102C9000FB7C282B06D1FB68212B03D1786801F03F
:102CA00053F816E07B681B686FF480625A617B6A98
:102CB00043F004037B62FB7E102B02D0FB7E402B93
:102CC00007D17B681B681A687B681B6842F4007236
:102CD0001A603B6ADB0A03F00103002B0ED0FB698C
:102CE0001B0A03F00103002B08D07B6A43F00803A2
:102CF0007B627B681B686FF400625A617B6A002B01
:102D000008D07B681A6C7B6A1A437B681A647868FF
:102D100001F08EF800BF2837BD4680BD80B483B077
:102D200000AF786000BF0C37BD465DF8047B70478C
:102D300080B483B000AF786000BF0C37BD465DF84B
:102D4000047B704780B483B000AF78600B46FB70A3
:102D500013463B8000BF0C37BD465DF8047B7047CF
:102D600080B483B000AF786000BF0C37BD465DF81B
:102D7000047B704780B483B000AF786000BF0C372D
:102D8000BD465DF8047B704780B584B000AF7860C5
:102D90007B6893F83D30FB737B6893F83E30BB73E0
:102DA0007B68DB6ABB607B681B8D002B50D1FB7B93
:102DB000212B4DD1BB68082B1DD0BB68202B1AD00E
:102DC000BB6813F5803F16D07B681B685A687B6828
:102DD0001B6822F4E0625A607B6811221A637B68E8
:102DE000002283F83E207B68202283F83D2078680B
:102DF00007F0B4FD60E07B681B685A687B681B685D
:102E000022F4E0625A607B681B681A687B681B6862
:102E100042F400721A607B6800221A637B682022E9
:102E200083F83D207B6893F83E30DBB2402B07D11E
:102E30007B68002283F83E20786807F0AFFD3BE016
:102E40007B68002283F83E20786807F087FD33E036
:102E5000FB7B212B05D0BB7B402B2DD1FB7B222B79
:102E60002AD17B685B8D9BB2002B08D17B681B68E5
:102E70005A687B681B6822F480625A601CE07B6899
:102E800093F83E30DBB2402B03D1786800F08EF827
:102E900012E07B685B6A1A787B681B681A617B6842
:102EA0005B6A5A1C7B685A627B685B8D9BB2013BF4
:102EB0009AB27B685A85FFE700BF1037BD4680BDD8
:102EC00080B584B000AF78607B68DB6AFB607B68AC
:102ED00093F83D30DBB2212B64D17B685B8D9BB2D4
:102EE000002B12D07B685B6A1A787B681B681A61BA
:102EF0007B685B6A5A1C7B685A627B685B8D9BB2FD
:102F0000013B9AB27B685A854CE0FB68082B1DD0C8
:102F1000FB68202B1AD0FB6813F5803F16D07B6826
:102F20001B685A687B681B6822F4E0625A607B6801
:102F300011221A637B68002283F83E207B682022DE
:102F400083F83D20786807F009FD2BE07B681B685B
:102F50005A687B681B6822F4E0625A607B681B68D1
:102F60001A687B681B6842F400721A607B68002252
:102F70001A637B68202283F83D207B6893F83E30FB
:102F8000DBB2402B07D17B68002283F83E207868B3
:102F900007F004FD06E07B68002283F83E20786895
:102FA00007F0DCFC00BF1037BD4680BD80B584B0A3
:102FB00000AF78607B6893F83D30FB737B681B6DD6
:102FC000002B1DD17B68DB6C012B0BD17B689B6CCC
:102FD000DAB27B681B681A617B681B6D9A1C7B6880
:102FE0001A6577E07B689B6C9BB21B12DAB27B6838
:102FF0001B681A617B681B6D5A1C7B681A6569E047
:103000007B681B6D012B0BD17B689B6CDAB27B68F4
:103010001B681A617B681B6D5A1C7B681A6559E036
:103020007B681B6D022B52D1FB7B222B0DD17B6861
:103030001B681A687B681B6842F480721A607B68A0
:103040001B6D5A1C7B681A6544E07B685B8D9BB2E4
:10305000002B15D0FB7B212B12D17B685B6A1A7881
:103060007B681B681A617B685B6A5A1C7B685A62C2
:103070007B685B8D9BB2013B9AB27B685A8529E0E5
:103080007B685B8D9BB2002B24D1FB7B212B21D154
:103090007B681B685A687B681B6822F4E0625A6090
:1030A0007B681B681A687B681B6842F400721A60B0
:1030B0007B6800221A637B68202283F83D207B68AE
:1030C000002283F83E20786807F068FC02E0786808
:1030D000FFF760F900BF1037BD4680BD80B584B0F2
:1030E00000AF78607B6893F83D30DBB2222B40F074
:1030F000B9807B68DB6AFB607B685B8D9BB2BB60E1
:10310000BB68032B21D97B681B681A697B685B6AE3
:10311000D2B21A707B685B6A5A1C7B685A627B6801
:103120005B8D9BB2013B9AB27B685A857B685B8D55
:103130009BB2032B40F096807B681B685A687B68C3
:103140001B6822F480625A608CE07B68DB6A022B89
:103150007FD0BB68012B02D0BB68002B79D1786887
:1031600001F0BAF80346002B4CD17B681B681A6843
:103170007B681B6822F480621A607B681B685A684F
:103180007B681B6822F4E0625A607B681B681A69DE
:103190007B685B6AD2B21A707B685B6A5A1C7B6878
:1031A0005A627B685B8D9BB2013B9AB27B685A8501
:1031B0007B68202283F83D207B6893F83E30DBB2A9
:1031C000402B0AD17B68002283F83E207B680022D6
:1031D0001A63786807F0F2FB44E07B68002283F80A
:1031E0003E20FB68082B02D0FB68202B03D17B68B4
:1031F00000221A6302E07B6812221A63786807F0E3
:10320000BDFB2FE07B681B685A687B681B6822F453
:10321000E0625A607B681B681A697B685B6AD2B29D
:103220001A707B685B6A5A1C7B685A627B685B8D8C
:103230009BB2013B9AB27B685A857B68202283F857
:103240003D207B68002283F83E20786807F0C6FBAB
:1032500008E07B681B685A687B681B6822F4806200
:103260005A60FFE700BF1037BD4680BD80B584B00F
:1032700000AF78607B68DB6AFB607B685B8D9BB22C
:10328000042B1BD17B681B685A687B681B6822F47F
:1032900080625A607B681B681A697B685B6AD2B27D
:1032A0001A707B685B6A5A1C7B685A627B685B8D0C
:1032B0009BB2013B9AB27B685A85C8E07B685B8D04
:1032C0009BB2032B29D17B681B685A687B681B68FB
:1032D00022F480625A60FB68042B0AD0FB68022B40
:1032E00007D07B681B681A687B681B6822F48062C1
:1032F0001A607B681B681A697B685B6AD2B21A70B5
:103300007B685B6A5A1C7B685A627B685B8D9BB2E8
:10331000013B9AB27B685A8599E07B685B8D9BB2D2
:10332000022B40F08180FB68012B02D0FB68102B40
:1033300008D17B681B681A687B681B6822F480626E
:103340001A6019E0FB68042B02D0FB68022B08D13D
:103350007B681B681A687B681B6842F480621A608D
:103360000AE0FB68102B07D07B681B681A687B6833
:103370001B6842F400721A607B681B681A697B68DC
:103380005B6AD2B21A707B685B6A5A1C7B685A62AD
:103390007B685B8D9BB2013B9AB27B685A857B68E8
:1033A0001B681A697B685B6AD2B21A707B685B6AB9
:1033B0005A1C7B685A627B685B8D9BB2013B9AB258
:1033C0007B685A857B681B685A687B681B6822F497
:1033D00040725A607B68202283F83D207B6893F816
:1033E0003E30DBB2402B0AD17B68002283F83E20BE
:1033F0007B6800221A63786807F0E0FA27E07B68B0
:10340000002283F83E20FB68082B02D0FB68202BAB
:1034100003D17B6800221A6302E07B6812221A63E0
:10342000786807F0ABFA12E07B681B681A697B6862
:103430005B6AD2B21A707B685B6A5A1C7B685A62FC
:103440007B685B8D9BB2013B9AB27B685A8500BF5B
:103450001037BD4680BD80B483B000AF78607B6814
:1034600093F83E30DBB2402B17D17B681B6D002BED
:1034700009D17B685B6CDBB21A467B681B6802F083
:10348000FE021A6167E07B685B6CDBB243F001030C
:10349000DAB27B681B681A615DE07B681B69B3F573
:1034A000804F33D17B6893F83D30DBB2212B09D1BB
:1034B0007B685B6CDBB21A467B681B6802F0FE021D
:1034C0001A6108E07B685B6CDBB243F00103DAB29F
:1034D0007B681B681A617B685B6B002B04D07B6880
:1034E0005B6BDB6B002B08D17B689B6B002B32D0B6
:1034F0007B689B6BDB6B002B2DD07B681B685A684D
:103500007B681B6842F400625A6024E07B681B6D94
:10351000002B0ED17B685B6C9BB2DB11DBB203F03E
:103520000603DBB263F00F03DAB27B681B681A6133
:1035300011E07B681B6D012B0DD17B685B6C9BB22E
:10354000DB11DBB203F00603DBB263F00E03DAB289
:103550007B681B681A6100BF0C37BD465DF8047BB1
:10356000704780B483B000AF78607B685B6CDAB280
:103570007B681B681A617B685B6B002B04D07B68DF
:103580005B6BDB6B002B08D17B689B6B002B0CD03B
:103590007B689B6BDB6B002B07D07B681B685A68D2
:1035A0007B681B6842F400625A6000BF0C37BD465E
:1035B0005DF8047B704780B491B000AF78607B68A1
:1035C00093F83E3087F83F307B68DB6ABB637B68EB
:1035D0001B6B7B637B6893F83D30DBB2222B40F0A2
:1035E00069817B681B6D002B0FD197F83F30402B12
:1035F0000BD100233B637B681B685B693B637B6883
:103600001B689B693B633B6B60E17B681B6D002B18
:103610001DD17B681B69B3F5404F18D10023FB62B5
:103620007B681B685B69FB627B681B689B69FB624C
:10363000FB6A7B681B681A687B681B6842F48072AF
:103640001A607B681B6D5A1C7B681A653EE17B68BB
:103650005B8D9BB2002B13D10023BB627B681B6880
:103660005B69BB627B681B689B69BB62BB6A7B68EA
:103670001B681A687B681B6842F400721A6015E1C7
:103680007B685B8D9BB2012B40F08A80BB6B13F58E
:10369000803F37D17B681B681A687B681B6822F4FF
:1036A00080621A607B681B685B6803F40063B3F593
:1036B000006F13D17B681B681A687B681B6822F453
:1036C00080621A6000237B627B681B685B697B6297
:1036D0007B681B689B697B627B6AE7E000233B6237
:1036E0007B681B685B693B627B681B689B693B620C
:1036F0003B6A7B681B681A687B681B6842F400722F
:103700001A60D3E0BB6B082B2ED0BB6B202B2BD0C9
:103710007B6B122B02D1BB6B012B25D1BB6B042B16
:103720000ED0BB6B022B0BD0BB6B102B08D07B6871
:103730001B681A687B681B6822F480621A6007E0C5
:103740007B681B681A687B681B6842F480621A6099
:103750000023FB617B681B685B69FB617B681B68FE
:103760009B69FB61FB69A1E07B681B681A687B6849
:103770001B6822F480621A600023BB617B681B68AF
:103780005B69BB617B681B689B69BB61BB697B68CC
:103790001B681A687B681B6842F400721A6085E037
:1037A0007B685B8D9BB2022B4DD1BB6B042B16D07B
:1037B000BB6B022B13D0BB6B102B10D07B681B682C
:1037C0001A687B681B6822F480621A607B681B6839
:1037D0001A687B681B6842F400621A6007E07B6825
:1037E0001B681A687B681B6842F480621A607B68F9
:1037F0001B685B6803F40063B3F5006F17D1BB6B04
:1038000013F5803F0BD0BB6B012B08D0BB6B082B93
:1038100005D0BB6B102B02D0BB6B202B07D17B6874
:103820001B685A687B681B6842F480525A60002308
:103830007B617B681B685B697B617B681B689B693C
:103840007B617B6932E07B681B681A687B681B6858
:1038500042F480621A607B681B685B6803F4006353
:10386000B3F5006F17D1BB6B13F5803F0BD0BB6B6B
:10387000012B08D0BB6B082B05D0BB6B102B02D0E3
:10388000BB6B202B07D17B681B685A687B681B6861
:1038900042F480525A6000233B617B681B685B697D
:1038A0003B617B681B689B693B613B697B680022CD
:1038B0001A650BE00023FB607B681B685B69FB609B
:1038C0007B681B689B69FB60FB68FFE700BF4437B0
:1038D000BD465DF8047B704780B584B000AF78606A
:1038E0007B6893F83D30FB737B685B8D9BB2002B4C
:1038F0002BD07B685B6A1A787B681B681A617B68CF
:103900005B6A5A1C7B685A627B685B8D9BB2013B89
:103910009AB27B685A857B685B8D9BB2002B14D171
:10392000FB7B292B11D17B681B685A687B681B685D
:1039300022F480625A607B6821221A637B68282205
:1039400083F83D207868FFF7E9F900BF1037BD46DE
:1039500080BD80B483B000AF78607B685B8D9BB224
:10396000002B11D07B685B6A1A787B681B681A6130
:103970007B685B6A5A1C7B685A627B685B8D9BB272
:10398000013B9AB27B685A8500BF0C37BD465DF893
:10399000047B704780B584B000AF78607B6893F893
:1039A0003D30FB737B685B8D9BB2002B2CD07B681A
:1039B0001B681A697B685B6AD2B21A707B685B6AA3
:1039C0005A1C7B685A627B685B8D9BB2013B9AB242
:1039D0007B685A857B685B8D9BB2002B14D1FB7B87
:1039E0002A2B11D17B681B685A687B681B6822F4FC
:1039F00080625A607B6822221A637B68282283F8DF
:103A00003D207868FFF794F900BF1037BD4680BDB0
:103A100080B483B000AF78607B685B8D9BB2002B75
:103A200012D07B681B681A697B685B6AD2B21A7015
:103A30007B685B6A5A1C7B685A627B685B8D9BB2B1
:103A4000013B9AB27B685A8500BF0C37BD465DF8D2
:103A5000047B704780B584B000AF78603960002384
:103A6000FB737B6893F83D30DBB203F02803282B0F
:103A700027D17B681B685A687B681B6822F48062C8
:103A80005A603B689B0803F00103002B01D101231E
:103A9000FB733B68DB0903F00103002B03D17B6858
:103AA000DB68BB8102E07B689B69BB817B6800228D
:103AB00083F83C20BA89FB7B19467868FFF742F906
:103AC0000EE00023BB607B681B685B69BB607B68A2
:103AD0001B689B69BB60BB687B68002283F83C2045
:103AE00000BF1037BD4680BD80B584B000AF7860A0
:103AF0007B6893F83D30FB737B681B685A687B6872
:103B00001B6822F4E0625A600023BB607B681B687C
:103B10005B69BB607B681B681A687B681B6842F046
:103B200001021A60BB687B681B681A687B681B68A7
:103B300022F480621A607B681B685B6803F4006390
:103B4000B3F5006F72D1FB7B222B02D0FB7B2A2BBB
:103B500035D17B689B6B1B685B689AB27B685A8522
:103B60007B685B8D9BB2002B05D07B681B6C43F0A0
:103B700004027B681A647B681B685A687B681B6850
:103B800022F400625A607B689B6B1846FEF7C7F808
:103B90000346012B49D07B689B6B694A1A657B6899
:103BA0009B6B1846FEF799F80346002B3DD07B68C7
:103BB0009B6B1B6D7A68926B1046984735E07B686B
:103BC0005B6B1B685B689AB27B685A857B685B8D10
:103BD0009BB2002B05D07B681B6C43F004027B6812
:103BE0001A647B681B685A687B681B6822F4006251
:103BF0005A607B685B6B1846FEF791F80346012B11
:103C000014D07B685B6B4E4A1A657B685B6B184609
:103C1000FEF763F80346002B08D07B685B6B1B6DD7
:103C20007A68526B1046984700E000BF7B685B8D56
:103C30009BB2002B3ED07B681B685B6903F00403DA
:103C4000042B12D17B681B681A697B685B6AD2B24D
:103C50001A707B685B6A5A1C7B685A627B685B8D52
:103C60009BB2013B9AB27B685A857B681B685B6993
:103C700003F04003402B12D17B681B681A697B68F4
:103C80005B6AD2B21A707B685B6A5A1C7B685A62A4
:103C90007B685B8D9BB2013B9AB27B685A857B68DF
:103CA0005B8D9BB2002B05D07B681B6C43F004023C
:103CB0007B681A647B681B6C002B03D0786800F06B
:103CC000B7F839E0FB7B2A2B09D17B6800221A6305
:103CD0007B68282283F83D207868FFF729F87B6805
:103CE00093F83D30DBB2282B11D17B68154ADA629C
:103CF0007B6800221A637B68202283F83D207B6862
:103D0000002283F83E207868FFF72AF814E07B68E9
:103D10001B6B222B02D0FB7B222B0DD17B68002258
:103D20001A637B68202283F83D207B68002283F899
:103D30003E207868FEF7FCFF00BF1037BD4680BD0F
:103D4000954000080000FFFF80B584B000AF7860A8
:103D50007B6893F83D30FB737B68DB6ABB60BB68B4
:103D6000082B02D0BB68202B29D1FB7B282B26D126
:103D70007B682E4ADA627B681B685A687B681B681E
:103D800022F4E0625A607B681B686FF480625A61BB
:103D90007B681B681A687B681B6822F480621A6063
:103DA0007B6800221A637B68202283F83D207B68B1
:103DB000002283F83E207868FEF7D2FF31E0FB7BDB
:103DC000212B29D17B68194ADA627B6821221A6388
:103DD0007B68202283F83D207B68002283F83E2008
:103DE0007B681B685A687B681B6822F4E0625A6033
:103DF0007B681B686FF480625A617B681B681A6875
:103E00007B681B6822F480621A607868FEF7C2FA49
:103E10007868FEF783FF04E07B681B686FF48062BC
:103E20005A6100BF1037BD4680BD00BF0000FFFFD4
:103E300080B584B000AF78607B6893F83D30FB7349
:103E40007B6893F83E30BB73BB7B102B02D0BB7BEF
:103E5000402B0AD1FB7B222B07D17B681B681A6899
:103E60007B681B6822F400621A60FB7B03F0280366
:103E7000282B07D17B6800221A637B68282283F8ED
:103E80003D2015E07B681B685B6803F40063B3F5B5
:103E9000006F0AD0FB7B602B07D07B68202283F861
:103EA0003D207B68002283F83E207B6800221A6355
:103EB0007B681B685B6803F40063B3F5006F62D135
:103EC0007B681B685A687B681B6822F400625A6032
:103ED0007B685B6B93F83530DBB2012B20D07B68BD
:103EE0005B6B6A4A1A657B685B6B1846FDF7F5FEEB
:103EF0000346002B00F089807B681B681A687B688A
:103F00001B6822F001021A607B68202283F83D20A2
:103F10007B685B6B1B6D7A68526B1046984774E048
:103F20007B689B6B594A1A657B689B6B1846FDF74B
:103F3000D4FE0346002B68D07B681B685B6903F0E6
:103F40004003402B0BD17B681B681A697B685B6A56
:103F5000D2B21A707B685B6A5A1C7B685A627B68B3
:103F60001B681A687B681B6822F001021A607B6874
:103F7000202283F83D207B689B6B1B6D7A68926BD7
:103F80001046984741E07B6893F83D30DBB2602BE8
:103F900025D17B68202283F83D207B6800221A64AB
:103FA0007B681B685B6903F04003402B0BD17B6887
:103FB0001B681A697B685B6AD2B21A707B685B6A9D
:103FC0005A1C7B685A627B681B681A687B681B688E
:103FD00022F001021A607868FEF7CCFE15E07B68DB
:103FE0001B685B6903F04003402B0BD17B681B68A7
:103FF0001A697B685B6AD2B21A707B685B6A5A1C6A
:104000007B685A62786806F0E9FC7B681B6CBB60D1
:10401000BB6803F00103002B0ED1BB6803F0020361
:10402000002B09D1BB6803F00403002B04D1BB684B
:1040300003F00803002B07D07B681B685A687B6875
:104040001B6822F4E0625A607B6893F83D30FB7392
:104050007B681B6C03F00403042B13D1FB7B282B20
:1040600010D17B680A4ADA627B6800221A637B6897
:10407000202283F83D207B68002283F83E20786868
:10408000FEF76EFE00BF1037BD4680BD95400008AC
:104090000000FFFF80B586B000AF78600023FB60B2
:1040A0007B689B6B7B617B6993F83D30FB744B4B6A
:1040B0001B68DB084A4AA2FB03231A0A13469B002B
:1040C0001344DA00D31AFB60FB68002B06D17B692E
:1040D0001B6C43F020027B691A640AE0FB68013B19
:1040E000FB607B691B681B6803F40073B3F5007FFA
:1040F000EAD07B695B6B002B03D07B695B6B002292
:10410000DA637B699B6B002B03D07B699B6B00227E
:10411000DA637B691B681A687B691B6822F480621A
:104120001A607B6900225A857B695B6B002B03D088
:104130007B695B6B00221A657B699B6B002B03D04C
:104140007B699B6B00221A657B691B681A687B6917
:104150001B6822F001021A607B6993F83D30DBB2E4
:10416000602B0ED17B69202283F83D207B690022E1
:1041700083F83E207B6900221A647869FEF7FAFD15
:1041800027E0FB7C03F02803282B17D17B691B68F1
:104190001A687B691B6842F001021A607B691B6820
:1041A0001A687B691B6842F480621A607B6900228E
:1041B0001A637B69282283F83D2007E07B6920226F
:1041C00083F83D207B69002283F83E20786906F061
:1041D00005FC00BF1837BD4680BD00BF00000020B1
:1041E00089B5F81480B584B000AFF860B9603B6061
:1041F0001346FB7148E03B68B3F1FF3F44D0FDF745
:10420000A1FB0246BB69D31A3A689A4202D33B68C3
:10421000002B39D1BB681B0CDBB2012B0DD1FB6825
:104220001B685B69DA43BB6813409BB2002B0CBF71
:1042300001230023DBB21A460CE0FB681B689B6974
:10424000DA43BB6813409BB2002B0CBF0123002351
:10425000DBB21A46FB799A4216D1FB6800221A6338
:10426000FB68202283F83D20FB68002283F83E2073
:10427000FB681B6C43F02002FB681A64FB68002299
:1042800083F83C20012323E0BB681B0CDBB2012B2D
:104290000DD1FB681B685B69DA43BB6813409BB2B6
:1042A000002B0CBF01230023DBB21A460CE0FB6895
:1042B0001B689B69DA43BB6813409BB2002B0CBFA1
:1042C00001230023DBB21A46FB799A4293D00023E4
:1042D00018461037BD4680BD80B485B000AF786009
:1042E0000023FB60134B1B68DB08134AA2FB03236C
:1042F0001A0A13469B001344FB60FB68013BFB60FA
:10430000FB68002B07D17B681B6C43F020027B68A5
:104310001A64012308E07B681B681B6803F40073C0
:10432000B3F5007FE9D0002318461437BD465DF889
:10433000047B70470000002089B5F81480B483B076
:1043400000AF78607B68DB6AB3F52A0F03D17B6826
:104350000122DA6207E07B68DB6AB3F12A4F02D1FF
:104360007B680822DA6200BF0C37BD465DF8047B2B
:104370007047000080B586B000AF78607B68002B86
:1043800001D1012367E27B681B6803F00103002B66
:1043900075D0884B9B6803F00C03042B0CD0854B25
:1043A0009B6803F00C03082B12D1824B5B6803F46B
:1043B0008003B3F5800F0BD17E4B1B6803F40033F1
:1043C000002B5BD07B685B68002B57D1012342E256
:1043D0007B685B68B3F5803F06D1764B1B68754AF6
:1043E00043F4803313601DE07B685B68B3F5A02F56
:1043F0000CD1704B1B686F4A43F4802313606D4BE4
:104400001B686C4A43F4803313600BE0694B1B68F4
:10441000684A23F480331360664B1B68654A23F4B3
:10442000802313607B685B68002B13D0FDF78AFA4A
:10443000386108E0FDF786FA02463B69D31A642B1F
:1044400001D9032307E25B4B1B6803F40033002B05
:10445000F0D014E0FDF776FA386108E0FDF772FA63
:1044600002463B69D31A642B01D90323F3E1514B74
:104470001B6803F40033002BF0D100E000BF7B6821
:104480001B6803F00203002B63D04A4B9B6803F0C8
:104490000C03002B0BD0474B9B6803F00C03082B3D
:1044A0001CD1444B5B6803F48003002B16D1414BB5
:1044B0001B6803F00203002B05D07B68DB68012B2F
:1044C00001D00123C7E13B4B1B6823F0F8027B6856
:1044D0001B69DB00374913430B603AE07B68DB68FC
:1044E000002B20D0344B01221A60FDF72BFA3861E3
:1044F00008E0FDF727FA02463B69D31A022B01D9DF
:104500000323A8E12B4B1B6803F00203002BF0D020
:10451000284B1B6823F0F8027B681B69DB002549E8
:1045200013430B6015E0244B00221A60FDF70AFAD2
:10453000386108E0FDF706FA02463B69D31A022B00
:1045400001D9032387E11B4B1B6803F00203002BF7
:10455000F0D17B681B6803F00803002B36D07B6822
:104560005B69002B16D0154B01221A60FDF7EAF9A2
:10457000386108E0FDF7E6F902463B69D31A022BE1
:1045800001D9032367E10B4B5B6F03F00203002BA0
:10459000F0D01BE0094B00221A60FDF7D3F9386117
:1045A0000EE0FDF7CFF902463B69D31A022B07D97B
:1045B000032350E10038024000004742800E47428A
:1045C000884B5B6F03F00203002BEAD17B681B680A
:1045D00003F00403002B00F097800023FB75814B50
:1045E0001B6C03F08053002B0FD10023BB607D4B6D
:1045F0001B6C7C4A43F0805313647A4B1B6C03F0B2
:104600008053BB60BB680123FB75774B1B6803F4C9
:104610008073002B18D1744B1B68734A43F480736A
:104620001360FDF78FF9386108E0FDF78BF902465A
:104630003B69D31A022B01D903230CE16A4B1B6897
:1046400003F48073002BF0D07B689B68012B06D1AC
:10465000644B1B6F634A43F0010313671CE07B68E4
:104660009B68052B0CD15F4B1B6F5E4A43F0040324
:1046700013675C4B1B6F5B4A43F0010313670BE04E
:10468000584B1B6F574A23F001031367554B1B6FA1
:10469000544A23F0040313677B689B68002B15D0F2
:1046A000FDF750F938610AE0FDF74CF902463B6925
:1046B000D31A41F28832934201D90323CBE0494B0C
:1046C0001B6F03F00203002BEED014E0FDF73AF964
:1046D00038610AE0FDF736F902463B69D31A41F228
:1046E0008832934201D90323B5E03E4B1B6F03F0A0
:1046F0000203002BEED1FB7D012B05D1394B1B6C46
:10470000384A23F0805313647B689B69002B00F0C8
:10471000A180344B9B6803F00C03082B5CD07B68B2
:104720009B69022B41D1314B00221A60FDF70AF937
:10473000386108E0FDF706F902463B69D31A022BFF
:1047400001D9032387E0274B1B6803F00073002B7C
:10475000F0D17B68DA697B681B6A1A437B685B6A05
:104760009B011A437B689B6A5B08013B1B041A434D
:104770007B68DB6A1B061B4913434B601B4B012202
:104780001A60FDF7DFF8386108E0FDF7DBF8024654
:104790003B69D31A022B01D903235CE0114B1B6840
:1047A00003F00073002BF0D054E0104B00221A608D
:1047B000FDF7C8F8386108E0FDF7C4F802463B6928
:1047C000D31A022B01D9032345E0064B1B6803F0E3
:1047D0000073002BF0D13DE07B689B69012B07D172
:1047E000012338E00038024000700040600047427A
:1047F0001B4B5B68FB607B689B69012B28D0FB68C7
:1048000003F480027B68DB699A4221D1FB6803F0E4
:104810003F027B681B6A9A421AD1FA6847F6C07356
:1048200013407A68526A9201934211D1FB6803F4F3
:1048300040327B689B6A5B08013B1B049A4207D1AC
:10484000FB6803F070627B68DB6A1B069A4201D04A
:10485000012300E0002318461837BD4680BD00BF85
:104860000038024080B584B000AF786039607B6862
:10487000002B01D10123CCE0684B1B6803F0070338
:104880003A689A420CD9654B3A68D2B21A70634BB7
:104890001B6803F007033A689A4201D00123B8E08D
:1048A0007B681B6803F00203002B20D07B681B6829
:1048B00003F00403002B05D0594B9B68584A43F47E
:1048C000E05393607B681B6803F00803002B05D05E
:1048D000534B9B68524A43F460439360504B9B6830
:1048E00023F0F0027B689B684D4913438B607B6823
:1048F0001B6803F00103002B44D07B685B68012B2D
:1049000007D1474B1B6803F40033002B19D1012357
:104910007FE07B685B68022B03D07B685B68032BBE
:1049200007D13F4B1B6803F00073002B09D1012313
:104930006FE03B4B1B6803F00203002B01D1012306
:1049400067E0374B9B6823F003027B685B68344960
:1049500013438B60FCF7F6FFF8600AE0FCF7F2FF08
:104960000246FB68D31A41F28832934201D90323ED
:104970004FE02B4B9B6803F00C027B685B689B004D
:104980009A42EBD1254B1B6803F007033A689A4221
:104990000CD2224B3A68D2B21A70204B1B6803F03B
:1049A00007033A689A4201D0012332E07B681B6812
:1049B00003F00403002B08D0194B9B6823F4E0524A
:1049C0007B68DB68164913438B607B681B6803F0C8
:1049D0000803002B09D0124B9B6823F460427B68CC
:1049E0001B69DB000E4913438B6000F021F802467F
:1049F0000B4B9B681B0903F00F030A49CB5C22FA9F
:104A000003F3094A1360094B1B681846FCF756FF6D
:104A1000002318461037BD4680BD00BF003C024051
:104A200000380240141B0108000000200400002090
:104A30002DE9B04F90B000AF00237B630023FB63F0
:104A400000233B630023BB63594B9B6803F00C03BB
:104A5000082B0DD0082B00F2A180002B02D0042BD4
:104A600003D09BE0534BBB639BE0534BBB6398E08D
:104A70004F4B5B6803F03F037B634D4B5B6803F474
:104A80008003002B28D04A4B5B689B0900223B62C5
:104A90007A623B6AC3F308000021474B03FB01F233
:104AA000002300FB03F31344434AA0FB0212FA6203
:104AB0000A46BA62FA6A1344FB627B6B0022BB614E
:104AC000FA61D7E90623D7E90A01FCF795F802460F
:104AD0000B461346FB6353E0354B5B689B09002292
:104AE0003B617A613B69C3F3080A4FF0000B524601
:104AF0005B464FF000004FF00001590141EAD261DE
:104B0000500102460B46B2EB0A0863EB0B094FF06B
:104B100000024FF000034FEA891343EA98634FEA1B
:104B20008812B2EB080463EB09054FF000024FF066
:104B30000003EB0043EA5473E20014461D4614EBF5
:104B40000A033B6045EB0B037B604FF000024FF024
:104B50000003D7E9004529468B02214643EA9153D9
:104B600021468A02104619467B6B0022BB60FA6020
:104B7000D7E90223FCF740F802460B461346FB63D5
:104B80000B4B5B681B0C03F0030301335B003B63BF
:104B9000FA6B3B6BB2FBF3F3BB6302E0054BBB6309
:104BA00000BFBB6B18464037BD46BDE8B08F00BFA5
:104BB000003802400024F40040787D0180B400AF4A
:104BC000034B1B681846BD465DF8047B704700BF69
:104BD0000000002080B500AFFFF7F0FF0246054B54
:104BE0009B689B0A03F007030349CB5C22FA03F39B
:104BF000184680BD00380240241B010880B500AF74
:104C0000FFF7DCFF0246054B9B685B0B03F00703D5
:104C10000349CB5C22FA03F3184680BD00380240FA
:104C2000241B010880B582B000AF78607B68002B40
:104C300001D1012341E07B6893F83D30DBB2002BCA
:104C400006D17B68002283F83C207868FCF714FDCD
:104C50007B68022283F83D207B681A687B680433F6
:104C60001946104600F0ACFA7B68012283F8462012
:104C70007B68012283F83E207B68012283F83F2075
:104C80007B68012283F840207B68012283F8412061
:104C90007B68012283F842207B68012283F843204D
:104CA0007B68012283F844207B68012283F8452039
:104CB0007B68012283F83D20002318460837BD4653
:104CC00080BD000080B485B000AF78607B6893F849
:104CD0003D30DBB2012B01D0012344E07B6802228E
:104CE00083F83D207B681B68DA687B681B6842F0AC
:104CF0000102DA607B681B681E4A934218D07B6809
:104D00001B68B3F1804F13D07B681B681A4A93422B
:104D10000ED07B681B68194A934209D07B681B68D8
:104D2000174A934204D07B681B68164A934211D1FC
:104D30007B681B689B6803F00703FB60FB68062B1E
:104D400010D07B681B681A687B681B6842F0010200
:104D50001A6007E07B681B681A687B681B6842F072
:104D600001021A60002318461437BD465DF8047B23
:104D7000704700BF000001400004004000080040F0
:104D8000000C00400040014080B483B000AF786068
:104D90007B681B68DA687B681B6822F00102DA60B6
:104DA0007B681B681A6A41F211131340002B0FD164
:104DB0007B681B681A6A40F244431340002B07D1FA
:104DC0007B681B681A687B681B6822F001021A6006
:104DD0007B68012283F83D20002318460C37BD462E
:104DE0005DF8047B704780B584B000AF78607B6865
:104DF0001B68DB68FB607B681B681B69BB60BB686A
:104E000003F00203002B20D0FB6803F00203002B09
:104E10001BD07B681B686FF002021A617B6801225D
:104E20001A777B681B689B6903F00303002B03D090
:104E3000786800F099F905E0786800F08BF97868F7
:104E400000F09CF97B6800221A77BB6803F004032A
:104E5000002B20D0FB6803F00403002B1BD07B68E1
:104E60001B686FF004021A617B6802221A777B6864
:104E70001B689B6903F44073002B03D0786800F033
:104E800073F905E0786800F065F9786800F076F964
:104E90007B6800221A77BB6803F00803002B20D040
:104EA000FB6803F00803002B1BD07B681B686FF0C6
:104EB00008021A617B6804221A777B681B68DB6929
:104EC00003F00303002B03D0786800F04DF905E0F0
:104ED000786800F03FF9786800F050F97B680022AC
:104EE0001A77BB6803F01003002B20D0FB6803F097
:104EF0001003002B1BD07B681B686FF010021A6137
:104F00007B6808221A777B681B68DB6903F44073AF
:104F1000002B03D0786800F027F905E0786800F0EE
:104F200019F9786800F02AF97B6800221A77BB68C3
:104F300003F00103002B0CD0FB6803F00103002BEE
:104F400007D07B681B686FF001021A61786805F072
:104F50004DFEBB6803F08003002B0CD0FB6803F010
:104F60008003002B07D07B681B686FF080021A61FA
:104F7000786800F0C3FABB6803F04003002B0CD044
:104F8000FB6803F04003002B07D07B681B686FF0C1
:104F900040021A61786800F0FBF8BB6803F0200358
:104FA000002B0CD0FB6803F02003002B07D07B689C
:104FB0001B686FF020021A61786800F095FA00BF54
:104FC0001037BD4680BD80B584B000AF78603960D1
:104FD0000023FB737B6893F83C30012B01D1022343
:104FE000B4E07B68012283F83C207B68022283F8CE
:104FF0003D207B681B689B68BB60BB6823F0770320
:10500000BB60BB6823F47F43BB607B681B68BA68E6
:105010009A603B681B68B3F5005F3ED0B3F5005F54
:1050200000F28780B3F5805F00F08680B3F5805F83
:105030007FD8702B1AD0702B7BD8602B50D0602B70
:1050400077D8502B3CD0502B73D8402B58D0402BC6
:105050006FD8302B64D0302B6BD8202B60D0202B16
:1050600067D8002B5CD0102B5AD062E07B681868A0
:105070003B6899683B685A683B68DB6800F0A6F9B2
:105080007B681B689B68BB60BB6843F07703BB60B1
:105090007B681B68BA689A604FE07B6818683B6859
:1050A00099683B685A683B68DB6800F08FF97B6859
:1050B0001B689A687B681B6842F480429A603CE0F7
:1050C0007B6818683B6859683B68DB681A4600F0E3
:1050D00003F97B681B685021184600F05CF92CE04E
:1050E0007B6818683B6859683B68DB681A4600F0C3
:1050F00022F97B681B686021184600F04CF91CE01F
:105100007B6818683B6859683B68DB681A4600F0A2
:10511000E3F87B681B684021184600F03CF90CE07E
:105120007B681A683B681B681946104600F033F923
:1051300003E00123FB7300E000BF7B68012283F8DA
:105140003D207B68002283F83C20FB7B184610370B
:10515000BD4680BD80B483B000AF786000BF0C371F
:10516000BD465DF8047B704780B483B000AF7860C3
:1051700000BF0C37BD465DF8047B704780B483B038
:1051800000AF786000BF0C37BD465DF8047B704708
:1051900080B483B000AF786000BF0C37BD465DF8C7
:1051A000047B704780B483B000AF78607B6893F86D
:1051B0003D30DBB218460C37BD465DF8047B7047C6
:1051C00080B485B000AF786039607B681B68FB6095
:1051D0007B683A4A93420FD07B68B3F1804F0BD083
:1051E0007B68374A934207D07B68364A934203D0A4
:1051F0007B68354A934208D1FB6823F07003FB605B
:105200003B685B68FA681343FB607B682B4A9342F8
:105210001BD07B68B3F1804F17D07B68284A93423C
:1052200013D07B68274A93420FD07B68264A93426B
:105230000BD07B68254A934207D07B68244A93426F
:1052400003D07B68234A934208D1FB6823F4407360
:10525000FB603B68DB68FA681343FB60FB6823F084
:1052600080023B685B691343FB607B68FA681A60E5
:105270003B689A687B68DA623B681A687B689A6266
:105280007B680E4A934203D13B681A697B681A63B4
:105290007B6801225A617B681B6903F00103012BC3
:1052A00005D17B681B6923F001027B681A6100BF8E
:1052B0001437BD465DF8047B704700BF0000014015
:1052C0000004004000080040000C00400040014085
:1052D000004401400048014080B487B000AFF8604E
:1052E000B9607A60FB681B6A7B61FB681B6A23F00C
:1052F0000102FB681A62FB689B693B613B6923F012
:10530000F0033B617B681B013A6913433B617B6996
:1053100023F00A037B617A69BB6813437B61FB68F6
:105320003A699A61FB687A691A6200BF1C37BD4608
:105330005DF8047B704780B487B000AFF860B96057
:105340007A60FB681B6A7B61FB681B6A23F01002B2
:10535000FB681A62FB689B693B613B6923F47043FD
:105360003B617B681B033A6913433B617B6923F014
:10537000A0037B61BB681B017A6913437B61FB68F7
:105380003A699A61FB687A691A6200BF1C37BD46A8
:105390005DF8047B704780B485B000AF78603960F9
:1053A0007B689B68FB60FB6823F07003FB603A68D6
:1053B000FB68134343F00703FB607B68FA689A605D
:1053C00000BF1437BD465DF8047B704780B487B0DA
:1053D00000AFF860B9607A603B60FB689B687B61F6
:1053E0007B6923F47F437B613B681A027B681A4325
:1053F000BB6813437A6913437B61FB687A699A60DF
:1054000000BF1C37BD465DF8047B704780B485B093
:1054100000AF786039607B6893F83C30012B01D194
:10542000022350E07B68012283F83C207B68022243
:1054300083F83D207B681B685B68FB607B681B68AA
:105440009B68BB60FB6823F07003FB603B681B68D4
:10545000FA681343FB607B681B68FA685A607B68D4
:105460001B681C4A934218D07B681B68B3F1804FBD
:1054700013D07B681B68184A93420ED07B681B6868
:10548000164A934209D07B681B68154A934204D0A0
:105490007B681B68134A93420CD1BB6823F08003DE
:1054A000BB603B685B68BA681343BB607B681B6882
:1054B000BA689A607B68012283F83D207B680022ED
:1054C00083F83C20002318461437BD465DF8047B62
:1054D000704700BF00000140000400400008004089
:1054E000000C00400040014080B483B000AF786001
:1054F00000BF0C37BD465DF8047B704780B483B0B5
:1055000000AF786000BF0C37BD465DF8047B704784
:1055100080B582B000AF78607B68002B01D1012399
:1055200042E07B6893F84130DBB2002B06D17B6808
:10553000002283F840207868FCF7F0F87B6824228A
:1055400083F841207B681B68DA687B681B6822F45B
:105550000052DA60786800F0A9FD7B681B681A6960
:105560007B681B6822F490421A617B681B685A6949
:105570007B681B6822F02A025A617B681B68DA6824
:105580007B681B6842F40052DA607B6800225A6430
:105590007B68202283F841207B68202283F8422008
:1055A0007B6800225A63002318460837BD4680BD39
:1055B00080B58AB002AFF860B9603B601346FB80EB
:1055C00000237B61FB6893F84130DBB2202B75D15F
:1055D000BB68002B02D0FB88002B01D101236EE0B9
:1055E000FB6800225A64FB68212283F84120FCF703
:1055F000A9F97861FB68FA889A84FB68FA88DA84EA
:10560000FB689B68B3F5805F08D1FB681B69002BC2
:1056100004D10023FB61BB68BB6103E0BB68FB6195
:105620000023BB612EE03B6800937B690022802150
:10563000F86800F00BFB0346002B05D0FB68202226
:1056400083F8412003233AE0FB69002B0BD1BB69AF
:105650001B881A46FB681B68C2F308025A60BB69C4
:105660000233BB6107E0FB691A78FB681B685A606C
:10567000FB690133FB61FB68DB8C9BB2013B9AB297
:10568000FB68DA84FB68DB8C9BB2002BCBD13B68D8
:1056900000937B6900224021F86800F0D7FA0346A6
:1056A000002B05D0FB68202283F84120032306E06D
:1056B000FB68202283F84120002300E002231846E3
:1056C0002037BD4680BD80B584B000AFF860B960BA
:1056D0001346FB80FB6893F84230DBB2202B12D1DB
:1056E000BB68002B02D0FB88002B01D101230BE00B
:1056F000FB6800221A63FB881A46B968F86800F054
:10570000FEFA034600E0022318461037BD4680BD6E
:1057100080B5BAB000AF78607B681B681B68C7F8BB
:10572000E4307B681B68DB68C7F8E0307B681B6887
:105730005B69C7F8DC300023C7F8D8300023C7F80E
:10574000D430D7F8E43003F00F03C7F8D830D7F8D7
:10575000D830002B0FD1D7F8E43003F02003002B12
:1057600009D0D7F8E03003F02003002B03D078688D
:1057700000F0DEFB5BE2D7F8D830002B00F0DE80D3
:10578000D7F8DC3003F00103002B06D1D7F8E03066
:1057900003F49073002B00F0D180D7F8E43003F0CD
:1057A0000103002B0BD0D7F8E03003F48073002BFB
:1057B00005D07B685B6C43F001027B685A64D7F8C4
:1057C000E43003F00403002B0BD0D7F8DC3003F0F7
:1057D0000103002B05D07B685B6C43F002027B6801
:1057E0005A64D7F8E43003F00203002B0BD0D7F84B
:1057F000DC3003F00103002B05D07B685B6C43F0C9
:1058000004027B685A64D7F8E43003F00803002BE5
:1058100011D0D7F8E03003F02003002B05D1D7F8E2
:10582000DC3003F00103002B05D07B685B6C43F098
:1058300008027B685A647B685B6C002B00F0F28185
:10584000D7F8E43003F02003002B08D0D7F8E0307D
:1058500003F02003002B02D0786800F069FB7B681E
:105860001B685B6903F04003402B0CBF012300233E
:10587000DBB2C7F8D4307B685B6C03F00803002B05
:1058800003D1D7F8D430002B4FD0786800F071FAEC
:105890007B681B685B6903F04003402B41D17B6848
:1058A0001B681433C7F89C30D7F89C3053E8003F8E
:1058B000C7F89830D7F8983023F04003C7F8D030B5
:1058C0007B681B681433D7F8D020C7F8A820C7F826
:1058D000A430D7F8A410D7F8A82041E80023C7F8CF
:1058E000A030D7F8A030002BD9D17B68DB6B002B20
:1058F00013D07B68DB6B7E4A1A657B68DB6B1846CE
:10590000FCF7EBF90346002B16D07B68DB6B1B6DB5
:105910007A68D26B104698470EE0786805F064FB11
:105920000AE0786805F060FB06E0786805F05CFB4B
:105930007B6800225A6475E100BF73E17B681B6BD2
:10594000012B40F04F81D7F8E43003F01003002B17
:1059500000F04881D7F8E03003F01003002B00F08E
:1059600041810023BB607B681B681B68BB607B6850
:105970001B685B68BB60BB687B681B685B6903F086
:105980004003402B40F0B6807B68DB6B1B685B6894
:10599000A7F8BE30B7F8BE30002B00F045817B6819
:1059A0009B8DB7F8BE209A4280F03E817B68B7F8A5
:1059B000BE20DA857B68DB6BDB69B3F5807F00F0A6
:1059C00088807B681B680C33C7F88830D7F888302C
:1059D00053E8003FC7F88430D7F8843023F480734D
:1059E000C7F8B8307B681B680C33D7F8B820C7F805
:1059F0009420C7F89030D7F89010D7F8942041E859
:105A00000023C7F88C30D7F88C30002BD9D17B68B5
:105A10001B6814337B677B6F53E8003F3B673B6F2A
:105A200023F00103C7F8B4307B681B681433D7F840
:105A3000B420C7F88020FB67F96FD7F8802041E8D1
:105A40000023BB67BB6F002BE1D17B681B6814335D
:105A50003B663B6E53E8003FFB65FB6D23F0400364
:105A6000C7F8B0307B681B681433D7F8B020FA66EB
:105A7000BB66B96EFA6E41E800237B667B6E002B35
:105A8000E3D17B68202283F842207B6800221A63DE
:105A90007B681B680C33FB64FB6C53E8003FBB6402
:105AA000BB6C23F01003C7F8AC307B681B680C3369
:105AB000D7F8AC20BA657B65796DBA6D41E80023F3
:105AC0003B653B6D002BE3D17B68DB6B1846FCF735
:105AD00094F87B6802225A637B689A8D7B68DB8D21
