:020000040800F2
:10000000000002206D0F0008910B0008990B0008FA
:10001000A10B0008A90B0008B10B000800000000AC
:100020000000000000000000000000001187000830
:10003000B90B00080000000061890008C70B000828
:10004000BD0F0008BD0F0008BD0F0008BD0F000860
:10005000BD0F0008BD0F0008BD0F0008BD0F000850
:10006000BD0F0008BD0F0008BD0F0008BD0F000840
:10007000BD0F0008BD0F0008BD0F0008BD0F000830
:10008000BD0F0008BD0F0008BD0F000800000000F4
:10009000000000000000000000000000E10B00086C
:1000A000BD0F0008BD0F0008BD0F0008BD0F000800
:1000B000BD0F0008F10B0008BD0F0008BD0F0008C0
:1000C000BD0F0008050C0008190C00082D0C0008D5
:1000D000BD0F0008410C0008BD0F00080000000023
:1000E000BD0F0008BD0F0008BD0F00080000000094
:1000F000000000000000000000000000BD0F00082C
:1001000000000000BD0F0008BD0F0008BD0F000873
:1001100000000000000000000000000000000000DF
:10012000BD0F0008BD0F0008BD0F0008BD0F00087F
:10013000BD0F0008000000000000000000000000EB
:10014000000000000000000000000000BD0F0008DB
:10015000BD0F0008BD0F0008BD0F0008BD0F00084F
:10016000BD0F0008BD0F00080000000000000000E7
:10017000000000000000000000000000000000007F
:1001800000000000BD0F000800000000000000009B
:08019000BD0F0008BD0F0008BF
:1001A00010B5054C237833B9044B13B10448AFF3B1
:1001B00000800123237010BD2001002000000000FA
:1001C000ECC4000808B5034B1BB103490348AFF367
:1001D000008008BD0000000024010020ECC40008DD
:1001E000034613F8012B002AFBD1181A0138704777
:1001F00001F0FF01102A2BDB10F0070F08D010F8D8
:10020000013B013A8B422DD010F0070F42B3F6D1DB
:10021000F0B441EA012141EA014122F007047FF0F4
:1002200000070023F0E80256083C85EA010586EA4B
:10023000010685FA47F5A3FA87F586FA47F6A5FA87
:1002400087F68EB9EED1F0BC01F0FF0102F0070293
:1002500032B110F8013B013A83EA010313B1F8D13E
:100260000020704701387047002D06BF354603381F
:10027000073815F0010F07D1013015F4807F02BF58
:10028000013015F4C03F0130F0BC0138704700BFA9
:1002900053B94AB9002908BF00281CBF4FF0FF31ED
:1002A0004FF0FF3000F088B9ADF1080C6DE904CED5
:1002B00000F006F8DDF804E0DDE9022304B0704741
:1002C0002DE9F047089D8E4604468846002B4AD10A
:1002D0008A42174662D9B2FA82F64EB1C6F12003BD
:1002E00001FA06F820FA03F3B74043EA0808B440DD
:1002F0004FEA174E1FFA87FCB8FBFEF1230C0EFBEA
:10030000118843EA084301FB0CF29A4209D9FB1811
:1003100001F1FF3080F0EA809A4240F2E780023932
:100320003B449A1AA3B2B2FBFEF00EFB102243EA42
:10033000024300FB0CFC9C4509D9FB1800F1FF327D
:1003400080F0D6809C4540F2D3803B44023840EA9E
:100350000140A3EB0C0300211DB1F3400022C5E9CD
:100360000032BDE8F0878B4205D90DB1C5E9000127
:1003700000210846F5E7B3FA83F1002946D1734519
:1003800002D3824200F20581841A6EEB030201203F
:100390009046002DE5D0C5E90048E2E7002A00F0CC
:1003A0009080B2FA82F6002E40F0A4808A1A030CE4
:1003B0004FEA174E80B2BCB20121B2FBFEFC0EFB2D
:1003C0001C2243EA024304FB0CF29A4207D9FB18B1
:1003D0000CF1FF3802D29A4200F2E080C4469B1A28
:1003E000B3FBFEF20EFB123340EA034302FB04F4BC
:1003F0009C4207D9FB1802F1FF3002D29C4200F266
:10040000CA8002461B1B42EA0C40A5E7C1F1200648
:100410008B4022FA06F71F430EFA01F420FA06F386
:100420002EFA06FE4FEA1749234300FA01F81FFA95
:1004300087FCBEFBF9F01C0C09FB10EE44EA0E44ED
:1004400000FB0CFEA64502FA01F209D93C1900F1A5
:10045000FF3A80F09C80A64540F2998002383C44E7
:10046000A4EB0E041FFA83FEB4FBF9F309FB13445B
:100470004EEA044403FB0CFCA44508D93C1903F1E3
:10048000FF3E80F08280A4457FD9023B3C4443EA92
:100490000040A4EB0C04A0FB02EC64457346E1466B
:1004A00062D35FD05DB1B8EB030264EB090404FAD8
:1004B00006F622FA01F31E43CC40C5E90064002190
:1004C0004FE7B1FBF2FC010C41EA0E4180B240EA79
:1004D00001423B4638463C46B846BE462026B1FB64
:1004E000F7F1A2EB080241EA0C4166E7014618E782
:1004F00010462CE7C6F120022EFA02F3B740B140B5
:1005000020FA02F24FEA174E0A43B3FBFEF8BCB2E0
:100510000EFB1833110C41EA034108FB04F9B0400B
:1005200089454FEA104380B23ED9791808F1FF3C63
:1005300001D289451FD8A1EB0901B1FBFEF909FBE6
:1005400004F80EFB191192B242EA0142424529D247
:10055000BA1809F1FF31C4D24245C2D2A9F1020151
:100560003A44BEE7F0459DD2BEEB02036CEB070CAC
:100570000138E14696E7A7EB09094944A8F1020CC6
:10058000B1FBFEF909FB04F8DBE773467FE7504651
:1005900066E70846FDE63B44023A33E7ACF1020C5D
:1005A0003B441CE749469CE7A1EB0901C446B1FB6B
:1005B000FEF909FB04F8C4E7704700BF80B500AF3F
:1005C000044A0021044805F046FD0346034A13602F
:1005D00000BF80BD6CCA0008E10500083C01002096
:1005E00080B582B000AF786008F024FE012005F0ED
:1005F000C4FDFBE780B58AB000AF07F11403002209
:100600001A605A609A60DA601A6100233B61574BA6
:100610001B6B564A43F004031363544B1B6B03F0EC
:1006200004033B613B690023FB60504B1B6B4F4A4B
:1006300043F0800313634D4B1B6B03F08003FB609F
:10064000FB680023BB60494B1B6B484A43F0010326
:100650001363464B1B6B03F00103BB60BB680023B5
:100660007B60424B1B6B414A43F0020313633F4BD9
:100670001B6B03F002037B607B6800233B603B4BFA
:100680001B6B3A4A43F008031363384B1B6B03F0B0
:1006900008033B603B6800222021354801F06AF8DE
:1006A0004FF6FF737B610323BB610023FB6107F1FE
:1006B000140319462F4800F0C1FE03237B61032376
:1006C000BB610023FB6107F1140319462A4800F0BF
:1006D000B5FE4FF603137B610323BB610023FB616F
:1006E00007F114031946224800F0A8FE20237B617D
:1006F0000123BB610223FB6100233B6207F114036A
:1007000019461B4800F09AFE40237B614FF4881382
:10071000BB610223FB6107F114031946144800F082
:100720008DFE4FF2E7137B610323BB610023FB6166
:1007300007F114031946114800F080FE04237B6181
:100740000323BB610023FB6107F1140319460C4826
:1007500000F074FE00220521172000F094FD172000
:1007600000F0ADFD00BF2837BD4680BD0038024017
:100770000000024000080240001C02400004024049
:10078000000C024080B500AF124B134A1A60114BA7
:10079000124A5A600F4B00229A600E4B0022DA6018
:1007A0000C4B4FF480421A610A4B00225A61094BEC
:1007B00000229A61074B0022DA61064B00221A627E
:1007C000044801F023F80346002B01D000F0F8F8AC
:1007D00000BF80BD4001002000580040A0860100FD
:1007E00080B58AB000AF786007F1140300221A6068
:1007F0005A609A60DA601A617B681B682A4A9342E1
:100800004DD100233B61294B1B6B284A43F0020367
:100810001363264B1B6B03F002033B613B694FF4F0
:1008200080637B611223BB610023FB6103233B6276
:1008300004237B6207F1140319461D4800F0FEFDF6
:100840004FF400737B611223BB610023FB61032320
:100850003B6209237B6207F114031946144800F038
:10086000EDFD0023FB60114B1B6C104A43F4800329
:1008700013640E4B1B6C03F48003FB60FB680022C7
:100880000521212000F0FFFC212000F018FD0022AE
:100890000521222000F0F7FC222000F010FD00BF0F
:1008A0002837BD4680BD00BF0058004000380240D8
:1008B0000004024080B582B000AF7860391D4FF669
:1008C000FF730122034804F041FB7B681846083798
:1008D000BD4680BD8002002080B500AF00F070FBF7
:1008E00000F010F8FFF786FE00F092FAFFF74AFFDB
:1008F00000F06CF805F050FBFFF760FE05F070FBB0
:1009000000BFFDE780B594B000AF07F120033022AF
:10091000002118460AF098FA07F10C0300221A6029
:100920005A609A60DA601A610023BB60224B1B6C2C
:10093000214A43F0805313641F4B1B6C03F0805318
:10094000BB60BB6800237B601C4B1B681B4A43F4E5
:1009500040431360194B1B6803F440437B607B6882
:1009600002233B620123FB6210233B630023BB6332
:1009700007F12003184602F09FFD0346002B01D02B
:1009800000F01EF80F23FB6000233B6100237B6116
:100990000023BB610023FB6107F10C030021184613
:1009A00003F002F80346002B01D000F009F800BF65
:1009B0005037BD4680BD00BF003802400070004087
:1009C00080B400AF72B600BF00BFFDE780B500AFD6
:1009D000174B184A1A60164B4FF482725A60144B28
:1009E00000229A60124B0022DA60114B00221A6139
:1009F0000F4B00225A610E4B4FF480229A610C4B30
:100A00000022DA610A4B00221A62094B00225A6264
:100A1000074B00229A62064B0A22DA62044803F06E
:100A2000A3F90346002B01D0FFF7CAFF00BF80BD2A
:100A3000940100200030014080B58AB000AF78609A
:100A400007F1140300221A605A609A60DA601A6192
:100A50007B681B68344A934261D100233B61334B6E
:100A60005B6C324A43F480535364304B5B6C03F449
:100A700080533B613B690023FB602C4B1B6B2B4A73
:100A800043F001031363294B1B6B03F00103FB606D
:100A9000FB680023BB60254B1B6B244A43F0020319
:100AA0001363224B1B6B03F00203BB60BB68102374
:100AB0007B610223BB610123FB6103233B620523AE
:100AC0007B6207F114031946194800F0B7FC802334
:100AD0007B610223BB610023FB6103233B6205238F
:100AE0007B6207F114031946114800F0A7FC182394
:100AF0007B610223BB610023FB6103233B6205236F
:100B00007B6207F1140319460A4800F097FC0022A3
:100B10000521232000F0B7FB232000F0D0FB00BF0D
:100B20002837BD4680BD00BF00300140003802407C
:100B3000000002400004024080B582B000AF0023F4
:100B40007B60124B5B6C114A43F4804353640F4B40
:100B50005B6C03F480437B607B6800233B600B4B42
:100B60001B6C0A4A43F080531364084B1B6C03F060
:100B700080533B603B6800220F216FF0010000F0C2
:100B800082FB00BF0837BD4680BD00BF0038024071
:100B900080B400AF00BFFDE780B400AF00BFFDE749
:100BA00080B400AF00BFFDE780B400AF00BFFDE739
:100BB00080B400AF00BFFDE780B400AF00BFBD460A
:100BC0005DF8047B704780B500AF00F04BFA07F08A
:100BD000FDF80346012B01D007F0F6FE00BF80BDF3
:100BE00080B500AF402000F0F9FD00BF80BD0000DF
:100BF00080B500AF024803F0C4FD00BF80BD00BF58
:100C0000F001002080B500AF024800F058FF00BF9F
:100C100080BD00BF4001002080B500AF024801F058
:100C2000BFF800BF80BD00BF4001002080B500AF0D
:100C3000024803F0CBFA00BF80BD00BF9401002042
:100C400080B500AF024804F031FA00BF80BD00BF9C
:100C50003802002080B586B000AFF860B9607A60D5
:100C600000237B610AE0AFF300800146BB685A1C99
:100C7000BA60CAB21A707B6901337B617A697B689A
:100C80009A42F0DB7B6818461837BD4680BD80B5B8
:100C900086B000AFF860B9607A6000237B6109E03C
:100CA000BB685A1CBA601B781846FFF703FE7B69C5
:100CB00001337B617A697B689A42F1DB7B68184675
:100CC0001837BD4680BD80B483B000AF78604FF068
:100CD000FF3318460C37BD465DF8047B704780B47F
:100CE00083B000AF786039603B684FF400525A60BF
:100CF000002318460C37BD465DF8047B704780B46E
:100D000083B000AF7860012318460C37BD465DF80C
:100D1000047B704780B485B000AFF860B9607A603A
:100D2000002318461437BD465DF8047B7047000069
:100D300080B586B000AF7860144A154BD31A7B613A
:100D40007B693B61134B1B68002B02D1114B124A8C
:100D50001A60104B1A687B6813443A699A4207D2AA
:100D60000AF0E6F803460C221A604FF0FF3309E060
:100D7000084B1B68FB60074B1A687B681344054AE5
:100D80001360FB6818461837BD4680BD000002207E
:100D900000040000EC010020D04F002080B400AF20
:100DA000064BD3F88830054A43F47003C2F8883004
:100DB00000BFBD465DF8047B704700BF00ED00E05A
:100DC00080B584B000AF78607B681B680E4A9342A0
:100DD00015D10023FB600D4B1B6C0C4A43F0020342
:100DE00013640A4B1B6C03F00203FB60FB680022D8
:100DF00005211D2000F047FA1D2000F060FA00BF19
:100E00001037BD4680BD00BF0004004000380240DE
:100E100080B500AF114B124A1A60104B4FF4E1320B
:100E20005A600E4B00229A600C4B0022DA600B4B8A
:100E300000221A61094B0C225A61084B00229A6168
:100E4000064B0022DA61054804F030F80346002B17
:100E500001D0FFF7B5FD00BF80BD00BF80020020BC
:100E60000044004080B58CB000AF786007F11C03EF
:100E700000221A605A609A60DA601A617B681B6807
:100E8000364A934235D10023BB61354B5B6C344A03
:100E900043F010035364324B5B6C03F01003BB61EF
:100EA000BB6900237B612E4B1B6B2D4A43F0010372
:100EB00013632B4B1B6B03F001037B617B694FF4C6
:100EC000C063FB6102233B6200237B620323BB629E
:100ED0000723FB6207F11C031946224800F0AEFA13
:100EE00000220521252000F0CEF9252000F0E7F9A9
:100EF00030E07B681B681C4A93422BD100233B6186
:100F0000174B1B6C164A43F400331364144B1B6CD1
:100F100003F400333B613B690023FB60104B1B6B08
:100F20000F4A43F0010313630D4B1B6B03F00103E6
:100F3000FB60FB680C23FB6102233B6200237B62A6
:100F40000323BB620723FB6207F11C031946054814
:100F500000F074FA00BF3037BD4680BD001001407C
:100F6000003802400000024000440040DFF834D066
:100F7000FFF714FF0C480D490D4A002302E0D45836
:100F8000C4500433C4188C42F9D30A4A0A4C0023D3
:100F900001E013600432A242FBD309F0CFFFFFF758
:100FA0009BFC704700000220000000202001002070
:100FB000F4CC000820010020D04F0020FEE7000004
:100FC00080B500AF0E4B1B680D4A43F400731360ED
:100FD0000B4B1B680A4A43F480631360084B1B6881
:100FE000074A43F480731360032000F041F90F2097
:100FF00000F008F8FFF7A0FD0023184680BD00BFF1
:10100000003C024080B582B000AF7860124B1A6895
:10101000124B1B7819464FF47A73B3FBF1F3B2FB12
:10102000F3F3184600F05DF90346002B01D00123CD
:101030000EE07B680F2B0AD8002279684FF0FF3052
:1010400000F021F9064A7B681360002300E00123C9
:1010500018460837BD4680BD00000020080000206B
:101060000400002080B400AF064B1B781A46064BE4
:101070001B681344044A136000BFBD465DF8047B3F
:10108000704700BF08000020C802002080B400AFF5
:10109000034B1B681846BD465DF8047B704700BFD4
:1010A000C802002080B485B000AF78607B6803F090
:1010B0000703FB600C4BDB68BB60BA684FF6FF03AD
:1010C0001340BB60FB681A02BB68134343F0BF6365
:1010D00043F40033BB60044ABB68D36000BF1437DD
:1010E000BD465DF8047B704700ED00E080B400AFC2
:1010F000044BDB681B0A03F007031846BD465DF886
:10110000047B704700ED00E080B483B000AF03467D
:10111000FB7197F90730002B0BDBFB7903F01F0203
:10112000074997F907305B09012000FA02F241F8FC
:10113000232000BF0C37BD465DF8047B704700BF1D
:1011400000E100E080B483B000AF03463960FB717A
:1011500097F90730002B0ADB3B68DAB20C4997F9A4
:1011600007301201D2B20B4483F800230AE03B6837
:10117000DAB20849FB7903F00F03043B1201D2B243
:101180000B441A7600BF0C37BD465DF8047B7047F0
:1011900000E100E000ED00E080B489B000AFF8604D
:1011A000B9607A60FB6803F00703FB61FB69C3F178
:1011B0000703042B28BF0423BB61FB690433062B00
:1011C00002D9FB69033B00E000237B614FF0FF3253
:1011D000BB6902FA03F3DA43BB681A407B699A40A1
:1011E0004FF0FF317B6901FA03F3D9437B680B4071
:1011F000134318462437BD465DF8047B7047000052
:1012000080B400AFBFF34F8F00BF064BDB6803F421
:10121000E0620449044B1343CB60BFF34F8F00BF20
:1012200000BFFDE700ED00E00400FA0580B582B0E4
:1012300000AF78607B68013BB3F1807F01D301236D
:101240000FE00A4A7B68013B53600F214FF0FF30EB
:10125000FFF778FF054B00229A60044B07221A60C3
:10126000002318460837BD4680BD00BF10E000E0EF
:1012700080B582B000AF78607868FFF713FF00BFD9
:101280000837BD4680BD80B586B000AF0346B96063
:101290007A60FB7300237B61FFF728FF78617A682F
:1012A000B9687869FFF778FF024697F90F30114661
:1012B0001846FFF747FF00BF1837BD4680BD80B511
:1012C00082B000AF0346FB7197F907301846FFF76D
:1012D0001BFF00BF0837BD4680BD80B500AFFFF7DC
:1012E0008FFF80B582B000AF78607868FFF79EFF0F
:1012F000034618460837BD4680BD80B584B000AFB0
:1013000078607B689B6DFB60FFF7C0FEB8607B6810
:1013100093F83530DBB2022B08D07B6880225A6507
:101320007B68002283F83420012352E07B681B682D
:101330001A687B681B6822F016021A607B681B68BB
:101340005A697B681B6822F080025A617B681B6CBB
:10135000002B03D17B689B6C002B07D07B681B683C
:101360001A687B681B6822F008021A607B681B6899
:101370001A687B681B6822F001021A6013E0FFF70D
:1013800085FE0246BB68D31A052B0CD97B68202248
:101390005A657B68032283F835207B68002283F836
:1013A0003420032315E07B681B681B6803F00103EE
:1013B000002BE4D17B68DB6D3F229A40FB689A608A
:1013C0007B68012283F835207B68002283F8342073
:1013D000002318461037BD4680BD80B483B000AFEF
:1013E00078607B6893F83530DBB2022B04D07B68E1
:1013F00080225A6501230CE07B68052283F83520A2
:101400007B681B681A687B681B6822F001021A60FF
:10141000002318460C37BD465DF8047B704780B446
:1014200083B000AF78607B6893F83530DBB2184644
:101430000C37BD465DF8047B7047000080B489B06E
:1014400000AF7860396000237B6100233B6100239B
:10145000BB610023FB6159E10122FB6902FA03F33E
:101460007B613B681B687A6913403B613A697B6921
:101470009A4240F048813B685B6803F00303012B0C
:1014800005D03B685B6803F00303022B30D17B6817
:101490009B68BB61FB695B00032202FA03F3DB4339
:1014A000BA691340BB613B68DA68FB695B0002FA0A
:1014B00003F3BA691343BB617B68BA699A607B68BE
:1014C0005B68BB610122FB6902FA03F3DB43BA6983
:1014D0001340BB613B685B681B0903F00102FB69B9
:1014E00002FA03F3BA691343BB617B68BA695A60B5
:1014F0003B685B6803F00303032B17D07B68DB6852
:10150000BB61FB695B00032202FA03F3DB43BA69A8
:101510001340BB613B689A68FB695B0002FA03F306
:10152000BA691343BB617B68BA69DA603B685B6880
:1015300003F00303022B23D1FB69DA087B6808322E
:1015400053F82230BB61FB6903F007039B000F22B5
:1015500002FA03F3DB43BA691340BB613B681A69C3
:10156000FB6903F007039B0002FA03F3BA69134314
:10157000BB61FB69DA087B680832B96943F822105D
:101580007B681B68BB61FB695B00032202FA03F303
:10159000DB43BA691340BB613B685B6803F003023D
:1015A000FB695B0002FA03F3BA691343BB617B6812
:1015B000BA691A603B685B6803F44033002B00F0A3
:1015C000A2800023FB60574B5B6C564A43F4804378
:1015D0005364544B5B6C03F48043FB60FB68524ADA
:1015E000FB699B08023352F82330BB61FB6903F0AF
:1015F00003039B000F2202FA03F3DB43BA69134093
:10160000BB617B68494A934219D07B68484A934240
:1016100013D07B68474A93420DD07B68464A934279
:1016200007D07B68454A934201D1042308E0072391
:1016300006E0032304E0022302E0012300E000238C
:10164000FA6902F0030292009340BA691343BB6146
:101650003549FB699B080233BA6941F82320384BAE
:101660009B68BB613B69DB43BA691340BB613B6864
:101670005B6803F48013002B03D0BA693B69134302
:10168000BB612F4ABB6993602D4BDB68BB613B6933
:10169000DB43BA691340BB613B685B6803F400132A
:1016A000002B03D0BA693B691343BB61244ABB6971
:1016B000D360234B5B68BB613B69DB43BA69134072
:1016C000BB613B685B6803F40033002B03D0BA694D
:1016D0003B691343BB611A4ABB695360184B1B68D3
:1016E000BB613B69DB43BA691340BB613B685B6824
:1016F00003F48033002B03D0BA693B691343BB6109
:101700000F4ABB691360FB690133FB61FB690F2B57
:101710007FF6A2AE00BF00BF2437BD465DF8047B54
:10172000704700BF0038024000380140000002400E
:101730000004024000080240000C02400010024079
:10174000003C014080B485B000AF78600B467B80E0
:101750007B681A697B881340002B02D00123FB733E
:1017600001E00023FB73FB7B18461437BD465DF890
:10177000047B704780B483B000AF78600B467B80F9
:1017800013467B707B78002B03D07A887B689A6144
:1017900003E07B881A047B689A6100BF0C37BD4662
:1017A0005DF8047B704780B485B000AF78600B466D
:1017B0007B807B685B69FB607A88FB6813401A0456
:1017C000FB68D9437B880B401A437B689A6100BF52
:1017D0001437BD465DF8047B7047000080B582B0C9
:1017E00000AF0346FB80084B5A69FB881340002B6F
:1017F00006D0054AFB885361FB88184607F090FE27
:1018000000BF0837BD4680BD003C014080B584B0B4
:1018100000AF78607B68002B01D101232BE17B684E
:1018200093F83D30DBB2002B06D17B68002283F8B1
:101830003C207868FEF7D4FF7B68242283F83D20A3
:101840007B681B681A687B681B6822F001021A60BB
:101850007B681B681A687B681B6842F400421A6048
:101860007B681B681A687B681B6822F400421A6058
:1018700002F052FAF8607B685B68814A934207D8AD
:10188000FB68804A934294BF01230023DBB206E049
:10189000FB687D4A934294BF01230023DBB2002BF7
:1018A00001D00123E7E0FB68784AA2FB03239B0CED
:1018B000BB607B681B685B6823F03F017B681B682B
:1018C000BA680A435A607B681B681B6A23F03F01B1
:1018D0007B685B686A4A934202D8BB68013309E0BF
:1018E000BB684FF4967202FB03F3694AA2FB032321
:1018F0009B0901337A6812680B4313627B681B688B
:10190000DB6923F44F4222F0FF027B685B685C498D
:101910008B4219D8FB68591E7B685B685B00B1FB82
:10192000F3F3591C40F6FC730B40002B0AD0FB6804
:10193000591E7B685B685B00B1FBF3F30133C3F3B3
:101940000B0351E004234FE07B689B68002B11D10F
:10195000FB68581E7B6859680B465B000B44B0FB64
:10196000F3F30133C3F30B03002B0CBF012300235C
:10197000DBB212E0FB68581E7B6859680B469B007F
:101980000B4499000B44B0FBF3F30133C3F30B0397
:10199000002B0CBF01230023DBB2002B01D001235D
:1019A00022E07B689B68002B0ED1FB68581E7B6889
:1019B00059680B465B000B44B0FBF3F30133C3F3F0
:1019C0000B0343F400430FE0FB68581E7B68596823
:1019D0000B469B000B4499000B44B0FBF3F301331F
:1019E000C3F30B0343F44043796809681343CB61A5
:1019F0007B681B681B6823F0C0017B68DA697B6821
:101A00001B6A1A437B681B680A431A607B681B6861
:101A10009B6823F4034323F0FF037A6811697A6813
:101A2000D26811437A6812680B4393607B681B6825
:101A3000DB6823F0FF017B685A697B689B691A4366
:101A40007B681B680A43DA607B681B681A687B68DE
:101A50001B6842F001021A607B6800221A647B68EE
:101A6000202283F83D207B6800221A637B680022D5
:101A700083F83E20002318461037BD4680BD00BFC6
:101A8000A08601007F841E00FF083D0083DE1B430B
:101A9000D34D621080B483B000AF78607B681B6860
:101AA0005B6903F08003802B03D17B681B680022F5
:101AB0001A6100BF0C37BD465DF8047B704780B5E6
:101AC00088B000AF78600023BB617B681B685B68EF
:101AD0007B617B68DB6A3B617B6893F83E30FB731C
:101AE0007B6893F83D30BB73FB7B102B03D0FB7BF3
:101AF000402B40F0C1807B681B689B69BB617B68A1
:101B00001B685B69FB61FB6903F00103002B0DD1CE
:101B10003B69B3F52A0F03D03B69B3F12A4F01D1DA
:101B2000012300E00023012B00F03281FB6903F068
:101B30000103002B0CD07B695B0A03F00103002B2F
:101B400006D0786801F09CFC786800F09FFD92E078
:101B5000FB69DB0803F00103002B09D07B695B0AFA
:101B600003F00103002B03D0786800F015FE82E03B
:101B7000FB695B0803F00103002B09D07B695B0A5A
:101B800003F00103002B03D0786800F02FFE72E011
:101B9000BB699B0803F00103002B3BD07B681B68EB
:101BA0005B6803F40063B3F5006F00F0F380FB693A
:101BB000DB0903F00103002B0FD07B699B0A03F0C4
:101BC0000103002B09D0FB699B0803F00103002BE4
:101BD00003D1786800F0F3F94DE0FB699B0803F04E
:101BE0000103002B00F0D6807B695B0A03F0010340
:101BF000002B00F0CF80BB7B212B03D1786800F055
:101C00007AFAC7E0FB7B402B40F0C480786800F094
:101C1000E8FABFE07B681B685B6803F40063B3F518
:101C2000006F00F0B780FB699B0903F00103002BF4
:101C30000FD07B699B0A03F00103002B09D0FB69DD
:101C40009B0803F00103002B03D1786800F061FBCF
:101C500011E0FB699B0803F00103002B00F09A8060
:101C60007B695B0A03F00103002B00F09380786826
:101C700000F017FC8EE08DE07B681B6C002B04D01D
:101C80007B681B685B69FB6107E07B681B689B697D
:101C9000BB617B681B685B69FB61FB695B0803F0E8
:101CA0000103002B12D07B695B0A03F00103002BB8
:101CB0000CD07B681B6C002B03D07B681B689B6976
:101CC000BB61B969786800F0E0FF66E0FB691B0959
:101CD00003F00103002B09D07B695B0A03F00103C9
:101CE000002B03D0786801F01BF856E0BB7B212B5A
:101CF00002D0BB7B292B25D1FB69DB0903F0010353
:101D0000002B0FD07B699B0A03F00103002B09D045
:101D1000FB699B0803F00103002B03D1786800F0F6
:101D2000F6FE39E0FB699B0803F00103002B33D07A
:101D30007B695B0A03F00103002B2DD0786800F06B
:101D400023FF29E0FB699B0903F00103002B0FD05F
:101D50007B699B0A03F00103002B09D0FB699B08F8
:101D600003F00103002B03D1786800F02EFF14E08C
:101D7000FB699B0803F00103002B0ED07B695B0A13
:101D800003F00103002B08D0786800F05CFF04E04A
:101D900000BF02E000BF00E000BF2037BD4680BDAD
:101DA00080B58AB000AF78607B681B685B693B6276
:101DB0007B681B685B68FB6100237B627B6893F830
:101DC0003E30FB763B6A1B0A03F00103002B0ED06A
:101DD000FB691B0A03F00103002B08D07B6A43F068
:101DE00001037B627B681B686FF480725A613B6AF7
:101DF0005B0A03F00103002B0ED0FB691B0A03F002
:101E00000103002B08D07B6A43F002037B627B68EE
:101E10001B686FF400725A613B6A9B0A03F001036E
:101E2000002B3FD0FB691B0A03F00103002B39D0C4
:101E3000FB7EBB767B685B8D9BB27B617B6893F896
:101E40003D30FB747B681B6BFB60BB7E202B12D18B
:101E50007B69002B0FD1FB7C212B08D0FB7C292B2D
:101E600005D0FB7C282B06D1FB68212B03D1786899
:101E700001F086F816E07B681B686FF480625A6197
:101E80007B6A43F004037B62FB7E102B02D0FB7E57
:101E9000402B07D17B681B681A687B681B6842F47B
:101EA00000721A603B6ADB0A03F00103002B0ED0BC
:101EB000FB691B0A03F00103002B08D07B6A43F087
:101EC00008037B627B681B686FF400625A617B6A5F
:101ED000002B08D07B681A6C7B6A1A437B681A64F3
:101EE000786801F0C1F800BF2837BD4680BD80B4D6
:101EF00083B000AF786000BF0C37BD465DF8047B4F
:101F0000704780B483B000AF786000BF0C37BD4627
:101F10005DF8047B704780B483B000AF786000BF89
:101F20000C37BD465DF8047B704780B483B000AFCA
:101F3000786000BF0C37BD465DF8047B704780B405
:101F400083B000AF78600B46FB7013463B8000BF48
:101F50000C37BD465DF8047B704780B483B000AF9A
:101F6000786000BF0C37BD465DF8047B704780B4D5
:101F700083B000AF786000BF0C37BD465DF8047BCE
:101F8000704780B483B000AF786000BF0C37BD46A7
:101F90005DF8047B704780B483B000AF786000BF09
:101FA0000C37BD465DF8047B704780B483B000AF4A
:101FB000786000BF0C37BD465DF8047B704780B584
:101FC00084B000AF78607B6893F83D30FB737B682A
:101FD00093F83E30BB737B68DB6ABB607B681B8D0C
:101FE000002B50D1FB7B212B4DD1BB68082B1DD082
:101FF000BB68202B1AD0BB6813F5803F16D07B68D6
:102000001B685A687B681B6822F4E0625A607B6830
:1020100011221A637B68002283F83E207B6820220D
:1020200083F83D207868FFF762FF60E07B681B68FB
:102030005A687B681B6822F4E0625A607B681B6800
:102040001A687B681B6842F400721A607B68002281
:102050001A637B68202283F83D207B6893F83E302A
:10206000DBB2402B07D17B68002283F83E207868E2
:10207000FFF77DFF3BE07B68002283F83E20786815
:10208000FFF735FF33E0FB7B212B05D0BB7B402BDB
:102090002DD1FB7B222B2AD17B685B8D9BB2002B41
:1020A00008D17B681B685A687B681B6822F48062D1
:1020B0005A601CE07B6893F83E30DBB2402B03D1C2
:1020C000786800F08EF812E07B685B6A1A787B68AB
:1020D0001B681A617B685B6A5A1C7B685A627B6862
:1020E0005B8D9BB2013B9AB27B685A85FFE700BFCC
:1020F0001037BD4680BD80B584B000AF78607B6886
:10210000DB6AFB607B6893F83D30DBB2212B64D146
:102110007B685B8D9BB2002B12D07B685B6A1A7860
:102120007B681B681A617B685B6A5A1C7B685A6211
:102130007B685B8D9BB2013B9AB27B685A854CE011
:10214000FB68082B1DD0FB68202B1AD0FB6813F509
:10215000803F16D07B681B685A687B681B6822F436
:10216000E0625A607B6811221A637B68002283F860
:102170003E207B68202283F83D207868FFF7B7FE79
:102180002BE07B681B685A687B681B6822F4E0625E
:102190005A607B681B681A687B681B6842F400728F
:1021A0001A607B6800221A637B68202283F83D2036
:1021B0007B6893F83E30DBB2402B07D17B6800226E
:1021C00083F83E207868FFF7D2FE06E07B680022A5
:1021D00083F83E207868FFF78AFE00BF1037BD46BF
:1021E00080BD80B584B000AF78607B6893F83D30E7
:1021F000FB737B681B6D002B1DD17B68DB6C012B97
:102200000BD17B689B6CDAB27B681B681A617B68B8
:102210001B6D9A1C7B681A6577E07B689B6C9BB290
:102220001B12DAB27B681B681A617B681B6D5A1C33
:102230007B681A6569E07B681B6D012B0BD17B689D
:102240009B6CDAB27B681B681A617B681B6D5A1C39
:102250007B681A6559E07B681B6D022B52D1FB7BB2
:10226000222B0DD17B681B681A687B681B6842F4BF
:1022700080721A607B681B6D5A1C7B681A6544E08B
:102280007B685B8D9BB2002B15D0FB7B212B12D181
:102290007B685B6A1A787B681B681A617B685B6A7B
:1022A0005A1C7B685A627B685B8D9BB2013B9AB279
:1022B0007B685A8529E07B685B8D9BB2002B24D11B
:1022C000FB7B212B21D17B681B685A687B681B68CC
:1022D00022F4E0625A607B681B681A687B681B689E
:1022E00042F400721A607B6800221A637B68202225
:1022F00083F83D207B68002283F83E207868FFF752
:1023000036FE02E07868FFF7C5FB00BF1037BD4618
:1023100080BD80B584B000AF78607B6893F83D30B5
:10232000DBB2222B40F0B9807B68DB6AFB607B6804
:102330005B8D9BB2BB60BB68032B21D97B681B689C
:102340001A697B685B6AD2B21A707B685B6A5A1C36
:102350007B685A627B685B8D9BB2013B9AB27B685B
:102360005A857B685B8D9BB2032B40F096807B681F
:102370001B685A687B681B6822F480625A608CE094
:102380007B68DB6A022B7FD0BB68012B02D0BB6865
:10239000002B79D1786801F041F80346002B4CD12D
:1023A0007B681B681A687B681B6822F480621A606D
:1023B0007B681B685A687B681B6822F4E0625A607D
:1023C0007B681B681A697B685B6AD2B21A707B688B
:1023D0005B6A5A1C7B685A627B685B8D9BB2013BCF
:1023E0009AB27B685A857B68202283F83D207B68FF
:1023F00093F83E30DBB2402B0AD17B68002283F891
:102400003E207B6800221A637868FFF7BAFD44E03B
:102410007B68002283F83E20FB68082B02D0FB6813
:10242000202B03D17B6800221A6302E07B68122212
:102430001A637868FFF765FD2FE07B681B685A68B0
:102440007B681B6822F4E0625A607B681B681A692B
:102450007B685B6AD2B21A707B685B6A5A1C7B68C5
:102460005A627B685B8D9BB2013B9AB27B685A854E
:102470007B68202283F83D207B68002283F83E2081
:102480007868FFF788FD08E07B681B685A687B68FE
:102490001B6822F480625A60FFE700BF1037BD4618
:1024A00080BD80B584B000AF78607B68DB6AFB607C
:1024B0007B685B8D9BB2042B1BD17B681B685A68C1
:1024C0007B681B6822F480625A607B681B681A690B
:1024D0007B685B6AD2B21A707B685B6A5A1C7B6845
:1024E0005A627B685B8D9BB2013B9AB27B685A85CE
:1024F000C8E07B685B8D9BB2032B29D17B681B688E
:102500005A687B681B6822F480625A60FB68042B5F
:102510000AD0FB68022B07D07B681B681A687B68AF
:102520001B6822F480621A607B681B681A697B68EA
:102530005B6AD2B21A707B685B6A5A1C7B685A620B
:102540007B685B8D9BB2013B9AB27B685A8599E0B0
:102550007B685B8D9BB2022B40F08180FB68012B76
:1025600002D0FB68102B08D17B681B681A687B6857
:102570001B6822F480621A6019E0FB68042B02D009
:10258000FB68022B08D17B681B681A687B681B6894
:1025900042F480621A600AE0FB68102B07D07B6867
:1025A0001B681A687B681B6842F400721A607B68BB
:1025B0001B681A697B685B6AD2B21A707B685B6AB7
:1025C0005A1C7B685A627B685B8D9BB2013B9AB256
:1025D0007B685A857B681B681A697B685B6AD2B224
:1025E0001A707B685B6A5A1C7B685A627B685B8DD9
:1025F0009BB2013B9AB27B685A857B681B685A681C
:102600007B681B6822F440725A607B68202283F842
:102610003D207B6893F83E30DBB2402B0AD17B68CB
:10262000002283F83E207B6800221A637868FFF757
:10263000A8FC27E07B68002283F83E20FB68082B7B
:1026400002D0FB68202B03D17B6800221A6302E0D2
:102650007B6812221A637868FFF753FC12E07B68EC
:102660001B681A697B685B6AD2B21A707B685B6A06
:102670005A1C7B685A627B685B8D9BB2013B9AB2A5
:102680007B685A8500BF1037BD4680BD80B483B0DB
:1026900000AF78607B6893F83E30DBB2402B17D1F7
:1026A0007B681B6D002B09D17B685B6CDBB21A4623
:1026B0007B681B6802F0FE021A6167E07B685B6C56
:1026C000DBB243F00103DAB27B681B681A615DE09C
:1026D0007B681B69B3F5804F33D17B6893F83D303D
:1026E000DBB2212B09D17B685B6CDBB21A467B68BD
:1026F0001B6802F0FE021A6108E07B685B6CDBB2CB
:1027000043F00103DAB27B681B681A617B685B6B7C
:10271000002B04D07B685B6BDB6B002B08D17B68E4
:102720009B6B002B32D07B689B6BDB6B002B2DD01F
:102730007B681B685A687B681B6842F400625A60B9
:1027400024E07B681B6D002B0ED17B685B6C9BB219
:10275000DB11DBB203F00603DBB263F00F03DAB286
:102760007B681B681A6111E07B681B6D012B0DD122
:102770007B685B6C9BB2DB11DBB203F00603DBB260
:1027800063F00E03DAB27B681B681A6100BF0C3776
:10279000BD465DF8047B704780B483B000AF7860BD
:1027A0007B685B6CDAB27B681B681A617B685B6B69
:1027B000002B04D07B685B6BDB6B002B08D17B6844
:1027C0009B6B002B0CD07B689B6BDB6B002B07D0CB
:1027D0007B681B685A687B681B6842F400625A6019
:1027E00000BF0C37BD465DF8047B704780B491B0E4
:1027F00000AF78607B6893F83E3087F83F307B68A5
:10280000DB6ABB637B681B6B7B637B6893F83D3043
:10281000DBB2222B40F069817B681B6D002B0FD14E
:1028200097F83F30402B0BD100233B637B681B683C
:102830005B693B637B681B689B693B633B6B60E147
:102840007B681B6D002B1DD17B681B69B3F5404F66
:1028500018D10023FB627B681B685B69FB627B68A5
:102860001B689B69FB62FB6A7B681B681A687B6854
:102870001B6842F480721A607B681B6D5A1C7B686F
:102880001A653EE17B685B8D9BB2002B13D1002360
:10289000BB627B681B685B69BB627B681B689B696A
:1028A000BB62BB6A7B681B681A687B681B6842F462
:1028B00000721A6015E17B685B8D9BB2012B40F0C2
:1028C0008A80BB6B13F5803F37D17B681B681A6821
:1028D0007B681B6822F480621A607B681B685B68F7
:1028E00003F40063B3F5006F13D17B681B681A68AB
:1028F0007B681B6822F480621A6000237B627B681D
:102900001B685B697B627B681B689B697B627B6A77
:10291000E7E000233B627B681B685B693B627B6886
:102920001B689B693B623B6A7B681B681A687B6813
:102930001B6842F400721A60D3E0BB6B082B2ED0E8
:10294000BB6B202B2BD07B6B122B02D1BB6B012BD3
:1029500025D1BB6B042B0ED0BB6B022B0BD0BB6BFA
:10296000102B08D07B681B681A687B681B6822F4F0
:1029700080621A6007E07B681B681A687B681B68C6
:1029800042F480621A600023FB617B681B685B690C
:10299000FB617B681B689B69FB61FB69A1E07B684D
:1029A0001B681A687B681B6822F480621A60002327
:1029B000BB617B681B685B69BB617B681B689B694B
:1029C000BB61BB697B681B681A687B681B6842F443
:1029D00000721A6085E07B685B8D9BB2022B4DD143
:1029E000BB6B042B16D0BB6B022B13D0BB6B102B15
:1029F00010D07B681B681A687B681B6822F48062B1
:102A00001A607B681B681A687B681B6842F4006266
:102A10001A6007E07B681B681A687B681B6842F4D1
:102A200080621A607B681B685B6803F40063B3F51F
:102A3000006F17D1BB6B13F5803F0BD0BB6B012B25
:102A400008D0BB6B082B05D0BB6B102B02D0BB6B27
:102A5000202B07D17B681B685A687B681B6842F48F
:102A600080525A6000237B617B681B685B697B61D5
:102A70007B681B689B697B617B6932E07B681B68B4
:102A80001A687B681B6842F480621A607B681B6866
:102A90005B6803F40063B3F5006F17D1BB6B13F5EC
:102AA000803F0BD0BB6B012B08D0BB6B082B05D034
:102AB000BB6B102B02D0BB6B202B07D17B681B6834
:102AC0005A687B681B6842F480525A6000233B615D
:102AD0007B681B685B693B617B681B689B693B612A
:102AE0003B697B6800221A650BE00023FB607B6872
:102AF0001B685B69FB607B681B689B69FB60FB680C
:102B0000FFE700BF4437BD465DF8047B704780B5E2
:102B100084B000AF78607B6893F83D30FB737B68CE
:102B20005B8D9BB2002B2BD07B685B6A1A787B682D
:102B30001B681A617B685B6A5A1C7B685A627B68F7
:102B40005B8D9BB2013B9AB27B685A857B685B8D3B
:102B50009BB2002B14D1FB7B292B11D17B681B6806
:102B60005A687B681B6822F480625A607B68212265
:102B70001A637B68282283F83D207868FFF7CBF939
:102B800000BF1037BD4680BD80B483B000AF786011
:102B90007B685B8D9BB2002B11D07B685B6A1A78D7
:102BA0007B681B681A617B685B6A5A1C7B685A6287
:102BB0007B685B8D9BB2013B9AB27B685A8500BFF4
:102BC0000C37BD465DF8047B704780B584B000AF1C
:102BD00078607B6893F83D30FB737B685B8D9BB2BC
:102BE000002B2CD07B681B681A697B685B6AD2B2A9
:102BF0001A707B685B6A5A1C7B685A627B685B8DC3
:102C00009BB2013B9AB27B685A857B685B8D9BB215
:102C1000002B14D1FB7B2A2B11D17B681B685A68CF
:102C20007B681B6822F480625A607B6822221A63E8
:102C30007B68282283F83D207868FFF776F900BF8B
:102C40001037BD4680BD80B483B000AF78607B682C
:102C50005B8D9BB2002B12D07B681B681A697B6866
:102C60005B6AD2B21A707B685B6A5A1C7B685A62D4
:102C70007B685B8D9BB2013B9AB27B685A8500BF33
:102C80000C37BD465DF8047B704780B584B000AF5B
:102C9000786039600023FB737B6893F83D30DBB2CA
:102CA00003F02803282B27D17B681B685A687B68B0
:102CB0001B6822F480625A603B689B0803F00103A2
:102CC000002B01D10123FB733B68DB0903F00103F7
:102CD000002B03D17B68DB68BB8102E07B689B69CA
:102CE000BB817B68002283F83C20BA89FB7B1946B4
:102CF0007868FFF724F90EE00023BB607B681B684F
:102D00005B69BB607B681B689B69BB60BB687B6859
:102D1000002283F83C2000BF1037BD4680BD000074
:102D200080B584B000AF78607B6893F83D30FB736A
:102D30007B681B685A687B681B6822F4E0625A60F3
:102D40000023BB607B681B685B69BB607B681B689A
:102D50001A687B681B6842F001021A60BB687B68D6
:102D60001B681A687B681B6822F480621A607B68A3
:102D70001B685B6803F40063B3F5006F72D1FB7BE3
:102D8000222B02D0FB7B2A2B35D17B689B6B1B68E7
:102D90005B689AB27B685A857B685B8D9BB2002B1F
:102DA00005D07B681B6C43F004027B681A647B6867
:102DB0001B685A687B681B6822F400625A607B6853
:102DC0009B6B1846FEF72BFB0346012B49D07B6813
:102DD0009B6B694A1A657B689B6B1846FEF7FDFA88
:102DE0000346002B3DD07B689B6B1B6D7A68926B12
:102DF0001046984735E07B685B6B1B685B689AB24E
:102E00007B685A857B685B8D9BB2002B05D07B6805
:102E10001B6C43F004027B681A647B681B685A6869
:102E20007B681B6822F400625A607B685B6B184603
:102E3000FEF7F5FA0346012B14D07B685B6B4E4A14
:102E40001A657B685B6B1846FEF7C7FA0346002BD2
:102E500008D07B685B6B1B6D7A68526B1046984795
:102E600000E000BF7B685B8D9BB2002B3ED07B688F
:102E70001B685B6903F00403042B12D17B681B6899
:102E80001A697B685B6AD2B21A707B685B6A5A1CEB
:102E90007B685A627B685B8D9BB2013B9AB27B6810
:102EA0005A857B681B685B6903F04003402B12D195
:102EB0007B681B681A697B685B6AD2B21A707B6890
:102EC0005B6A5A1C7B685A627B685B8D9BB2013BD4
:102ED0009AB27B685A857B685B8D9BB2002B05D0CC
:102EE0007B681B6C43F004027B681A647B681B6C74
:102EF000002B03D0786800F0B7F839E0FB7B2A2B71
:102F000009D17B6800221A637B68282283F83D2060
:102F10007868FFF70AF87B6893F83D30DBB2282B1E
:102F200011D17B68154ADA627B6800221A637B68DC
:102F3000202283F83D207B68002283F83E207868B9
:102F4000FFF70BF814E07B681B6B222B02D0FB7B96
:102F5000222B0DD17B6800221A637B68202283F824
:102F60003D207B68002283F83E207868FEF7DDFF75
:102F700000BF1037BD4680BDCD3200080000FFFF06
:102F800080B584B000AF78607B6893F83D30FB7308
:102F90007B68DB6ABB60BB68082B02D0BB68202B58
:102FA00029D1FB7B282B26D17B682E4ADA627B68ED
:102FB0001B685A687B681B6822F4E0625A607B6871
:102FC0001B686FF480625A617B681B681A687B68B3
:102FD0001B6822F480621A607B6800221A637B6897
:102FE000202283F83D207B68002283F83E20786809
:102FF000FEF7B3FF31E0FB7B212B29D17B68194A17
:10300000DA627B6821221A637B68202283F83D20E4
:103010007B68002283F83E207B681B685A687B68C7
:103020001B6822F4E0625A607B681B686FF4806260
:103030005A617B681B681A687B681B6822F480628F
:103040001A607868FEF726FD7868FEF764FF04E0F2
:103050007B681B686FF480625A6100BF1037BD4601
:1030600080BD00BF0000FFFF80B584B000AF786076
:103070007B6893F83D30FB737B6893F83E30BB73FD
:10308000BB7B102B02D0BB7B402B0AD1FB7B222BBE
:1030900007D17B681B681A687B681B6822F4006292
:1030A0001A60FB7B03F02803282B07D17B680022E2
:1030B0001A637B68282283F83D2015E07B681B6833
:1030C0005B6803F40063B3F5006F0AD0FB7B602BF1
:1030D00007D07B68202283F83D207B68002283F89C
:1030E0003E207B6800221A637B681B685B6803F4E0
:1030F0000063B3F5006F62D17B681B685A687B6818
:103100001B6822F400625A607B685B6B93F8353071
:10311000DBB2012B20D07B685B6B6A4A1A657B6847
:103120005B6B1846FEF759F90346002B00F08980C7
:103130007B681B681A687B681B6822F001021A60B2
:103140007B68202283F83D207B685B6B1B6D7A686F
:10315000526B1046984774E07B689B6B594A1A651E
:103160007B689B6B1846FEF738F90346002B68D046
:103170007B681B685B6903F04003402B0BD17B68C5
:103180001B681A697B685B6AD2B21A707B685B6ADB
:103190005A1C7B685A627B681B681A687B681B68CC
:1031A00022F001021A607B68202283F83D207B68B0
:1031B0009B6B1B6D7A68926B1046984741E07B6869
:1031C00093F83D30DBB2602B25D17B68202283F859
:1031D0003D207B6800221A647B681B685B6903F0F2
:1031E0004003402B0BD17B681B681A697B685B6AC4
:1031F000D2B21A707B685B6A5A1C7B685A627B6821
:103200001B681A687B681B6822F001021A607868E4
:10321000FEF7CBFE15E07B681B685B6903F040039B
:10322000402B0BD17B681B681A697B685B6AD2B242
:103230001A707B685B6A5A1C7B685A627868FEF772
:10324000AAFE7B681B6CBB60BB6803F00103002B0C
:103250000ED1BB6803F00203002B09D1BB6803F059
:103260000403002B04D1BB6803F00803002B07D034
:103270007B681B685A687B681B6822F4E0625A60AE
:103280007B6893F83D30FB737B681B6C03F0040391
:10329000042B13D1FB7B282B10D17B680A4ADA62FE
:1032A0007B6800221A637B68202283F83D207B68BC
:1032B000002283F83E207868FEF74FFE00BF1037EB
:1032C000BD4680BDCD3200080000FFFF80B586B04E
:1032D00000AF78600023FB607B689B6B7B617B6940
:1032E00093F83D30FB744B4B1B68DB084A4AA2FB4A
:1032F00003231A0A13469B001344DA00D31AFB6017
:10330000FB68002B06D17B691B6C43F020027B69B4
:103310001A640AE0FB68013BFB607B691B681B6861
:1033200003F40073B3F5007FEAD07B695B6B002B7D
:1033300003D07B695B6B0022DA637B699B6B002B9C
:1033400003D07B699B6B0022DA637B691B681A6878
:103350007B691B6822F480621A607B6900225A85AF
:103360007B695B6B002B03D07B695B6B00221A656A
:103370007B699B6B002B03D07B699B6B00221A65DA
:103380007B691B681A687B691B6822F001021A605E
:103390007B6993F83D30DBB2602B0ED17B69202234
:1033A00083F83D207B69002283F83E207B69002260
:1033B0001A647869FEF7F9FD27E0FB7C03F0280327
:1033C000282B17D17B691B681A687B691B6842F040
:1033D00001021A607B691B681A687B691B6842F4EA
:1033E00080621A607B6900221A637B69282283F855
:1033F0003D2007E07B69202283F83D207B69002285
:1034000083F83E207869FEF7C6FD00BF1837BD4639
:1034100080BD00BF0000002089B5F81480B485B0DD
:1034200000AF78600023FB60134B1B68DB08134A76
:10343000A2FB03231A0A13469B001344FB60FB689C
:10344000013BFB60FB68002B07D17B681B6C43F0E2
:1034500020027B681A64012308E07B681B681B68F4
:1034600003F40073B3F5007FE9D000231846143746
:10347000BD465DF8047B70470000002089B5F81454
:1034800080B483B000AF78607B68DB6AB3F52A0F45
:1034900003D17B680122DA6207E07B68DB6AB3F163
:1034A0002A4F02D17B680822DA6200BF0C37BD4682
:1034B0005DF8047B7047000080B586B000AF78608F
:1034C0007B68002B01D1012367E27B681B6803F056
:1034D0000103002B75D0884B9B6803F00C03042B71
:1034E0000CD0854B9B6803F00C03082B12D1824B48
:1034F0005B6803F48003B3F5800F0BD17E4B1B6830
:1035000003F40033002B5BD07B685B68002B57D142
:10351000012342E27B685B68B3F5803F06D1764BBE
:103520001B68754A43F4803313601DE07B685B6859
:10353000B3F5A02F0CD1704B1B686F4A43F4802366
:1035400013606D4B1B686C4A43F4803313600BE0CF
:10355000694B1B68684A23F480331360664B1B6811
:10356000654A23F4802313607B685B68002B13D0CB
:10357000FDF78CFD386108E0FDF788FD02463B69E8
:10358000D31A642B01D9032307E25B4B1B6803F4B6
:103590000033002BF0D014E0FDF778FD386108E02F
:1035A000FDF774FD02463B69D31A642B01D903234E
:1035B000F3E1514B1B6803F40033002BF0D100E022
:1035C00000BF7B681B6803F00203002B63D04A4BEB
:1035D0009B6803F00C03002B0BD0474B9B6803F058
:1035E0000C03082B1CD1444B5B6803F48003002BB5
:1035F00016D1414B1B6803F00203002B05D07B68FA
:10360000DB68012B01D00123C7E13B4B1B6823F092
:10361000F8027B681B69DB00374913430B603AE013
:103620007B68DB68002B20D0344B01221A60FDF749
:103630002DFD386108E0FDF729FD02463B69D31AEC
:10364000022B01D90323A8E12B4B1B6803F00203D3
:10365000002BF0D0284B1B6823F0F8027B681B6915
:10366000DB00254913430B6015E0244B00221A6050
:10367000FDF70CFD386108E0FDF708FD02463B69E7
:10368000D31A022B01D9032387E11B4B1B6803F0DC
:103690000203002BF0D17B681B6803F00803002BAA
:1036A00036D07B685B69002B16D0154B01221A605F
:1036B000FDF7ECFC386108E0FDF7E8FC02463B69E9
:1036C000D31A022B01D9032367E10B4B5B6F03F085
:1036D0000203002BF0D01BE0094B00221A60FDF71B
:1036E000D5FC38610EE0FDF7D1FC02463B69D31AE8
:1036F000022B07D9032350E1003802400000474263
:10370000800E4742884B5B6F03F00203002BEAD127
:103710007B681B6803F00403002B00F097800023F4
:10372000FB75814B1B6C03F08053002B0FD10023E2
:10373000BB607D4B1B6C7C4A43F0805313647A4B17
:103740001B6C03F08053BB60BB680123FB75774B98
:103750001B6803F48073002B18D1744B1B68734AE9
:1037600043F480731360FDF791FC386108E0FDF7C6
:103770008DFC02463B69D31A022B01D903230CE1CD
:103780006A4B1B6803F48073002BF0D07B689B6846
:10379000012B06D1644B1B6F634A43F0010313678F
:1037A0001CE07B689B68052B0CD15F4B1B6F5E4A4E
:1037B00043F0040313675C4B1B6F5B4A43F0010348
:1037C00013670BE0584B1B6F574A23F00103136735
:1037D000554B1B6F544A23F0040313677B689B68A7
:1037E000002B15D0FDF752FC38610AE0FDF74EFCC6
:1037F00002463B69D31A41F28832934201D903232E
:10380000CBE0494B1B6F03F00203002BEED014E01A
:10381000FDF73CFC38610AE0FDF738FC02463B69E5
:10382000D31A41F28832934201D90323B5E03E4BCB
:103830001B6F03F00203002BEED1FB7D012B05D1A2
:10384000394B1B6C384A23F0805313647B689B69A7
:10385000002B00F0A180344B9B6803F00C03082B75
:103860005CD07B689B69022B41D1314B00221A60EE
:10387000FDF70CFC386108E0FDF708FC02463B69E7
:10388000D31A022B01D9032387E0274B1B6803F0CF
:103890000073002BF0D17B68DA697B681B6A1A43DE
:1038A0007B685B6A9B011A437B689B6A5B08013BF0
:1038B0001B041A437B68DB6A1B061B4913434B60DE
:1038C0001B4B01221A60FDF7E1FB386108E0FDF7B0
:1038D000DDFB02463B69D31A022B01D903235CE0CE
:1038E000114B1B6803F00073002BF0D054E0104B19
:1038F00000221A60FDF7CAFB386108E0FDF7C6FB3D
:1039000002463B69D31A022B01D9032345E0064B3B
:103910001B6803F00073002BF0D13DE07B689B69CE
:10392000012B07D1012338E000380240007000402D
:10393000600047421B4B5B68FB607B689B69012B07
:1039400028D0FB6803F480027B68DB699A4221D1AE
:10395000FB6803F03F027B681B6A9A421AD1FA683F
:1039600047F6C07313407A68526A9201934211D1AC
:10397000FB6803F440327B689B6A5B08013B1B04D5
:103980009A4207D1FB6803F070627B68DB6A1B0612
:103990009A4201D0012300E0002318461837BD46A3
:1039A00080BD00BF0038024080B584B000AF7860B1
:1039B00039607B68002B01D10123CCE0684B1B6888
:1039C00003F007033A689A420CD9654B3A68D2B2C1
:1039D0001A70634B1B6803F007033A689A4201D0E0
:1039E0000123B8E07B681B6803F00203002B20D0A2
:1039F0007B681B6803F00403002B05D0594B9B68C0
:103A0000584A43F4E05393607B681B6803F0080353
:103A1000002B05D0534B9B68524A43F4604393609C
:103A2000504B9B6823F0F0027B689B684D49134321
:103A30008B607B681B6803F00103002B44D07B681C
:103A40005B68012B07D1474B1B6803F40033002B45
:103A500019D101237FE07B685B68022B03D07B6870
:103A60005B68032B07D13F4B1B6803F00073002BEF
:103A700009D101236FE03B4B1B6803F00203002BCD
:103A800001D1012367E0374B9B6823F003027B6879
:103A90005B68344913438B60FDF7F8FAF8600AE07D
:103AA000FDF7F4FA0246FB68D31A41F288329342DA
:103AB00001D903234FE02B4B9B6803F00C027B687A
:103AC0005B689B009A42EBD1254B1B6803F0070310
:103AD0003A689A420CD2224B3A68D2B21A70204B02
:103AE0001B6803F007033A689A4201D0012332E0D1
:103AF0007B681B6803F00403002B08D0194B9B68FC
:103B000023F4E0527B68DB68164913438B607B68C3
:103B10001B6803F00803002B09D0124B9B6823F4A9
:103B200060427B681B69DB000E4913438B6000F029
:103B300021F802460B4B9B681B0903F00F030A494F
:103B4000CB5C22FA03F3094A1360094B1B68184641
:103B5000FDF758FA002318461037BD4680BD00BF58
:103B6000003C02400038024090CA000800000020DB
:103B7000040000202DE9B04F90B000AF00237B631C
:103B80000023FB6300233B630023BB63594B9B680B
:103B900003F00C03082B0DD0082B00F2A180002BA2
:103BA00002D0042B03D09BE0534BBB639BE0534BF1
:103BB000BB6398E04F4B5B6803F03F037B634D4B67
:103BC0005B6803F48003002B28D04A4B5B689B0999
:103BD00000223B627A623B6AC3F308000021474B34
:103BE00003FB01F2002300FB03F31344434AA0FB51
:103BF0000212FA620A46BA62FA6A1344FB627B6BEB
:103C00000022BB61FA61D7E90623D7E90A01FCF774
:103C10003FFB02460B461346FB6353E0354B5B68A4
:103C20009B0900223B617A613B69C3F3080A4FF0AC
:103C3000000B52465B464FF000004FF00001590167
:103C400041EAD261500102460B46B2EB0A0863EB2F
:103C50000B094FF000024FF000034FEA891343EACB
:103C600098634FEA8812B2EB080463EB09054FF042
:103C700000024FF00003EB0043EA5473E2001446E5
:103C80001D4614EB0A033B6045EB0B037B604FF0D2
:103C900000024FF00003D7E9004529468B02214678
:103CA00043EA915321468A02104619467B6B002253
:103CB000BB60FA60D7E90223FCF7EAFA02460B463A
:103CC0001346FB630B4B5B681B0C03F003030133D0
:103CD0005B003B63FA6B3B6BB2FBF3F3BB6302E04D
:103CE000054BBB6300BFBB6B18464037BD46BDE804
:103CF000B08F00BF003802400024F40040787D01FE
:103D000080B400AF034B1B681846BD465DF8047BCA
:103D1000704700BF0000002080B500AFFFF7F0FF44
:103D20000246054B9B689B0A03F007030349CB5CE3
:103D300022FA03F3184680BD00380240A0CA0008EA
:103D400080B500AFFFF7DCFF0246054B9B685B0BBD
:103D500003F007030349CB5C22FA03F3184680BD46
:103D600000380240A0CA000880B582B000AF786079
:103D70007B68002B01D101237BE07B685B6A002B11
:103D800008D17B685B68B3F5827F09D07B6800222D
:103D9000DA6105E07B6800221A617B6800225A61C3
:103DA0007B6800229A627B6893F85130DBB2002B6B
:103DB00006D17B68002283F850207868FCF73CFE2F
:103DC0007B68022283F851207B681B681A687B6835
:103DD0001B6822F040021A607B685B6803F4827201
:103DE0007B689B6803F404431A437B68DB6803F435
:103DF00000631A437B681B6903F002031A437B6864
:103E00005B6903F001031A437B689B6903F4007349
:103E10001A437B68DB6903F038031A437B681B6A2B
:103E200003F0800342EA03017B689B6A03F40052BB
:103E30007B681B680A431A607B689B691B0C03F054
:103E400004017B685B6A03F010027B681B680A430D
:103E50005A607B681B68DA697B681B6822F4006221
:103E6000DA617B6800225A657B68012283F8512061
:103E7000002318460837BD4680BD80B58AB000AF24
:103E8000F860B9607A607B8001237B62FDF7FEF801
:103E90003862FB6893F85130FB77FB685B68BB6165
:103EA0007B88FB82FB7F012B0CD0BB69B3F5827F43
:103EB00006D1FB689B68002B02D1FB7F042B01D04D
:103EC00002237FE1BB68002B05D07B68002B02D06A
:103ED0007B88002B01D1012374E1FB6893F85030FB
:103EE000012B01D102236DE1FB68012283F85020F0
:103EF000FB6893F85130DBB2042B03D0FB6805223A
:103F000083F85120FB6800225A65FB687A689A633F
:103F1000FB687A88DA87FB687A889A87FB68BA68D0
:103F20001A63FB687A88DA86FB687A889A86FB6867
:103F300000221A64FB6800225A64FB681B681B6835
:103F400003F04003402B07D0FB681B681A68FB682E
:103F50001B6842F040021A60FB68DB68B3F5006F33
:103F60007ED1FB685B68002B02D0FB8A012B6CD1F1
:103F7000FB681B6B1A88FB681B68DA60FB681B6BAD
:103F80009A1CFB681A63FB68DB8E9BB2013B9AB2FA
:103F9000FB68DA8659E0FB681B689B6803F0020344
:103FA000022B1BD1FB68DB8E9BB2002B16D07B6AE9
:103FB000012B13D1FB681B6B1A88FB681B68DA6046
:103FC000FB681B6B9A1CFB681A63FB68DB8E9BB259
:103FD000013B9AB2FB68DA8600237B62FB681B68B0
:103FE0009B6803F00103012B19D1FB68DB8F9BB2A7
:103FF000002B14D0FB681B68DA68FB689B6B92B2DD
:104000001A80FB689B6B9A1CFB689A63FB68DB8FCA
:104010009BB2013B9AB2FB68DA8701237B62FDF712
:1040200035F802463B6AD31A3A6B9A420DD83B6B7D
:10403000B3F1FF3F09D0FB68012283F85120FB68F0
:10404000002283F850200323BCE0FB68DB8E9BB288
:10405000002BA0D1FB68DB8F9BB2002B9BD182E0B1
:10406000FB685B68002B02D0FB8A012B71D1FB68D7
:104070001A6BFB681B680C3312781A70FB681B6B99
:104080005A1CFB681A63FB68DB8E9BB2013B9AB239
:10409000FB68DA865DE0FB681B689B6803F002033F
:1040A000022B1CD1FB68DB8E9BB2002B17D07B6AE6
:1040B000012B14D1FB681A6BFB681B680C33127858
:1040C0001A70FB681B6B5A1CFB681A63FB68DB8E5B
:1040D0009BB2013B9AB2FB68DA8600237B62FB68E5
:1040E0001B689B6803F00103012B19D1FB68DB8F70
:1040F0009BB2002B14D0FB681B68DA68FB689B6BD3
:10410000D2B21A70FB689B6B5A1CFB689A63FB68FF
:10411000DB8F9BB2013B9AB2FB68DA8701237B629B
:10412000FCF7B4FF02463B6AD31A3A6B9A4203D8B3
:104130003B6BB3F1FF3F02D13B6B002B09D1FB6816
:10414000012283F85120FB68002283F850200323CA
:1041500038E0FB68DB8E9BB2002B9CD1FB68DB8FC9
:104160009BB2002B97D13A6A396BF86800F0D4F90A
:104170000346002B08D0FB6820225A65FB6800220A
:1041800083F8502001231DE0FB689B68002B0AD1B7
:1041900000233B61FB681B68DB683B61FB681B68B5
:1041A0009B683B613B69FB68012283F85120FB68F7
:1041B000002283F85020FB685B6D002B01D00123A7
:1041C00000E0002318462837BD4680BD80B588B082
:1041D00000AF78607B681B685B68FB617B681B686D
:1041E0009B68BB61BB699B0903F00103002B0FD1E6
:1041F000BB6903F00103002B0AD0FB699B0903F0A4
:104200000103002B04D07B681B6C78689847D7E0CB
:10421000BB695B0803F00103002B0AD0FB69DB09D3
:1042200003F00103002B04D07B685B6C786898472F
:10423000C6E0BB695B0903F00103002B0CD1BB692D
:104240009B0903F00103002B06D1BB691B0A03F095
:104250000103002B00F0B480FB695B0903F001034C
:10426000002B00F0AD80BB699B0903F00103002B1C
:1042700023D07B6893F85130DBB2032B11D07B68DD
:104280005B6D43F004027B685A6500237B617B68A9
:104290001B68DB687B617B681B689B687B617B6953
:1042A0000BE000233B617B681B68DB683B617B683C
:1042B0001B689B683B613B6982E0BB695B0903F05B
:1042C0000103002B14D07B685B6D43F001027B6817
:1042D0005A650023FB607B681B689B68FB607B68FA
:1042E0001B681A687B681B6822F040021A60FB6832
:1042F000BB691B0A03F00103002B0CD07B685B6DCC
:1043000043F008027B685A650023BB607B681B682A
:104310009B68BB60BB687B685B6D002B4FD07B6884
:104320001B685A687B681B6822F0E0025A607B6851
:10433000012283F85120FB6903F00203002B04D112
:10434000FB6903F00103002B34D07B681B685A68BB
:104350007B681B6822F003025A607B68DB6C002BD1
:1043600011D07B68DB6C184A1A657B68DB6C1846D9
:10437000FDF733F80346002B05D07B685B6D43F0F7
:1043800040027B685A657B689B6C002B16D07B686B
:104390009B6C0D4A1A657B689B6C1846FDF71DF8EF
:1043A0000346002B0AD07B685B6D43F040027B68BC
:1043B0005A6503E0786800F009F800E000BF00BF2C
:1043C0002037BD4680BD00BFE143000880B483B004
:1043D00000AF786000BF0C37BD465DF8047B7047C6
:1043E00080B584B000AF78607B689B6BFB60FB6836
:1043F0000022DA87FB680022DA86F868FFF7E6FF1A
:1044000000BF1037BD4680BD80B588B000AFF860F2
:10441000B9603B601346FB71FCF738FE0246BB6A8D
:104420009B1A3A681344FB61FCF730FEB861394BC4
:104430001B685B011B0DFA6902FB03F37B6154E00F
:104440003B68B3F1FF3F50D0FCF720FE0246BB694A
:10445000D31AFA699A4202D9FB69002B3DD1FB6855
:104460001B685A68FB681B6822F0E0025A60FB6810
:104470005B68B3F5827F11D1FB689B68B3F5004F91
:1044800004D0FB689B68B3F5806F07D1FB681B689D
:104490001A68FB681B6822F040021A60FB689B6A7E
:1044A000B3F5005F0FD1FB681B681A68FB681B68D7
:1044B00022F400521A60FB681B681A68FB681B68CC
:1044C00042F400521A60FB68012283F85120FB6815
:1044D000002283F85020032317E07B69002B01D1D1
:1044E0000023FB617B69013B7B61FB681B689A6869
:1044F000BB681340BA689A420CBF01230023DBB2A9
:104500001A46FB799A429BD1002318462037BD46B4
:1045100080BD00BF0000002080B588B002AFF86009
:10452000B9607A607B680093BB6801220221F86859
:10453000FFF76AFF0346002B07D0FB685B6D43F073
:104540002002FB685A65032332E01B4B1B681B4AA1
:10455000A2FB03235B0D4FF47A7202FB03F37B6132
:10456000FB685B68B3F5827F12D17B680093BB6800
:1045700000228021F868FFF747FF0346002B16D082
:10458000FB685B6D43F02002FB685A6503230FE074
:104590007B69002B0AD07B69013B7B61FB681B6850
:1045A0009B6803F08003802BF2D000E000BF002363
:1045B00018461837BD4680BD00000020819F5E165A
:1045C00080B582B000AF78607B68002B01D10123F9
:1045D00041E07B6893F83D30DBB2002B06D17B686D
:1045E000002283F83C207868FCF7EAFB7B68022213
:1045F00083F83D207B681A687B68043319461046AF
:1046000000F0ACFA7B68012283F846207B68012227
:1046100083F83E207B68012283F83F207B680122DB
:1046200083F840207B68012283F841207B680122C7
:1046300083F842207B68012283F843207B680122B3
:1046400083F844207B68012283F845207B6801229F
:1046500083F83D20002318460837BD4680BD000082
:1046600080B485B000AF78607B6893F83D30DBB2F2
:10467000012B01D0012344E07B68022283F83D2016
:104680007B681B68DA687B681B6842F00102DA60AD
:104690007B681B681E4A934218D07B681B68B3F185
:1046A000804F13D07B681B681A4A93420ED07B68F8
:1046B0001B68194A934209D07B681B68174A9342CA
:1046C00004D07B681B68164A934211D17B681B6833
:1046D0009B6803F00703FB60FB68062B10D07B6828
:1046E0001B681A687B681B6842F001021A6007E0C9
:1046F0007B681B681A687B681B6842F001021A60BD
:10470000002318461437BD465DF8047B704700BF90
:10471000000001400004004000080040000C004080
:104720000040014080B483B000AF78607B681B68B4
:10473000DA687B681B6822F00102DA607B681B681C
:104740001A6A41F211131340002B0FD17B681B68CA
:104750001A6A40F244431340002B07D17B681B6860
:104760001A687B681B6822F001021A607B680122CC
:1047700083F83D20002318460C37BD465DF8047BC6
:10478000704780B584B000AF78607B681B68DB68D9
:10479000FB607B681B681B69BB60BB6803F002039E
:1047A000002B20D0FB6803F00203002B1BD07B689A
:1047B0001B686FF002021A617B6801221A777B681E
:1047C0001B689B6903F00303002B03D0786800F09B
:1047D00099F905E0786800F08BF9786800F09CF9A9
:1047E0007B6800221A77BB6803F00403002B20D0FB
:1047F000FB6803F00403002B1BD07B681B686FF081
:1048000004021A617B6802221A777B681B689B6925
:1048100003F44073002B03D0786800F073F905E0CF
:10482000786800F065F9786800F076F97B68002216
:104830001A77BB6803F00803002B20D0FB6803F055
:104840000803002B1BD07B681B686FF008021A61FD
:104850007B6804221A777B681B68DB6903F003031B
:10486000002B03D0786800F04DF905E0786800F07F
:104870003FF9786800F050F97B6800221A77BB682E
:1048800003F01003002B20D0FB6803F01003002B73
:104890001BD07B681B686FF010021A617B680822CE
:1048A0001A777B681B68DB6903F44073002B03D025
:1048B000786800F027F905E0786800F019F9786861
:1048C00000F02AF97B6800221A77BB6803F0010325
:1048D000002B0CD0FB6803F00103002B07D07B6892
:1048E0001B686FF001021A61786804F04DFFBB6825
:1048F00003F08003002B0CD0FB6803F08003002B37
:1049000007D07B681B686FF080021A61786800F03E
:10491000C3FABB6803F04003002B0CD0FB6803F024
:104920004003002B07D07B681B686FF040021A61C0
:10493000786800F0FBF8BB6803F02003002B0CD074
:10494000FB6803F02003002B07D07B681B686FF027
:1049500020021A61786800F095FA00BF1037BD4652
:1049600080BD80B584B000AF786039600023FB73F0
:104970007B6893F83C30012B01D10223B4E07B68C3
:10498000012283F83C207B68022283F83D207B686B
:104990001B689B68BB60BB6823F07703BB60BB6888
:1049A00023F47F43BB607B681B68BA689A603B68EE
:1049B0001B68B3F5005F3ED0B3F5005F00F287805F
:1049C000B3F5805F00F08680B3F5805F7FD8702BF1
:1049D0001AD0702B7BD8602B50D0602B77D8502BFF
:1049E0003CD0502B73D8402B58D0402B6FD8302B55
:1049F00064D0302B6BD8202B60D0202B67D8002BB5
:104A00005CD0102B5AD062E07B6818683B689968CC
:104A10003B685A683B68DB6800F0A6F97B681B6856
:104A20009B68BB60BB6843F07703BB607B681B6817
:104A3000BA689A604FE07B6818683B6899683B6881
:104A40005A683B68DB6800F08FF97B681B689A68DE
:104A50007B681B6842F480429A603CE07B6818687F
:104A60003B6859683B68DB681A4600F003F97B68CD
:104A70001B685021184600F05CF92CE07B68186830
:104A80003B6859683B68DB681A4600F022F97B688E
:104A90001B686021184600F04CF91CE07B68186820
:104AA0003B6859683B68DB681A4600F0E3F87B68AE
:104AB0001B684021184600F03CF90CE07B681A683E
:104AC0003B681B681946104600F033F903E00123E8
:104AD000FB7300E000BF7B68012283F83D207B6808
:104AE000002283F83C20FB7B18461037BD4680BD72
:104AF00080B483B000AF786000BF0C37BD465DF86E
:104B0000047B704780B483B000AF786000BF0C377F
:104B1000BD465DF8047B704780B483B000AF786019
:104B200000BF0C37BD465DF8047B704780B483B08E
:104B300000AF786000BF0C37BD465DF8047B70475E
:104B400080B483B000AF78607B6893F83D30DBB20F
:104B500018460C37BD465DF8047B704780B485B0BD
:104B600000AF786039607B681B68FB607B683A4AFD
:104B700093420FD07B68B3F1804F0BD07B68374AEC
:104B8000934207D07B68364A934203D07B68354A0C
:104B9000934208D1FB6823F07003FB603B685B68BD
:104BA000FA681343FB607B682B4A93421BD07B68F7
:104BB000B3F1804F17D07B68284A934213D07B68AB
:104BC000274A93420FD07B68264A93420BD07B68DA
:104BD000254A934207D07B68244A934203D07B68DE
:104BE000234A934208D1FB6823F44073FB603B687F
:104BF000DB68FA681343FB60FB6823F080023B68C4
:104C00005B691343FB607B68FA681A603B689A68CB
:104C10007B68DA623B681A687B689A627B680E4A36
:104C2000934203D13B681A697B681A637B6801224F
:104C30005A617B681B6903F00103012B05D17B6876
:104C40001B6923F001027B681A6100BF1437BD465F
:104C50005DF8047B704700BF000001400004004085
:104C600000080040000C00400040014000440140AA
:104C70000048014080B487B000AFF860B9607A6046
:104C8000FB681B6A7B61FB681B6A23F00102FB68FF
:104C90001A62FB689B693B613B6923F0F0033B614F
:104CA0007B681B013A6913433B617B6923F00A036C
:104CB0007B617A69BB6813437B61FB683A699A61DF
:104CC000FB687A691A6200BF1C37BD465DF8047B39
:104CD000704780B487B000AFF860B9607A60FB6855
:104CE0001B6A7B61FB681B6A23F01002FB681A6277
:104CF000FB689B693B613B6923F470433B617B68C4
:104D00001B033A6913433B617B6923F0A0037B617A
:104D1000BB681B017A6913437B61FB683A699A613E
:104D2000FB687A691A6200BF1C37BD465DF8047BD8
:104D3000704780B485B000AF786039607B689B684D
:104D4000FB60FB6823F07003FB603A68FB68134369
:104D500043F00703FB607B68FA689A6000BF143772
:104D6000BD465DF8047B704780B487B000AFF86043
:104D7000B9607A603B60FB689B687B617B6923F468
:104D80007F437B613B681A027B681A43BB6813430D
:104D90007A6913437B61FB687A699A6000BF1C37AC
:104DA000BD465DF8047B704780B485B000AF786085
:104DB00039607B6893F83C30012B01D1022350E02D
:104DC0007B68012283F83C207B68022283F83D2027
:104DD0007B681B685B68FB607B681B689B68BB60CB
:104DE000FB6823F07003FB603B681B68FA681343A1
:104DF000FB607B681B68FA685A607B681B681C4A0A
:104E0000934218D07B681B68B3F1804F13D07B6846
:104E10001B68184A93420ED07B681B68164A93425F
:104E200009D07B681B68154A934204D07B681B68D5
:104E3000134A93420CD1BB6823F08003BB603B68EC
:104E40005B68BA681343BB607B681B68BA689A608A
:104E50007B68012283F83D207B68002283F83C2098
:104E6000002318461437BD465DF8047B704700BF29
:104E7000000001400004004000080040000C004019
:104E80000040014080B483B000AF786000BF0C37B1
:104E9000BD465DF8047B704780B483B000AF786096
:104EA00000BF0C37BD465DF8047B704780B582B00B
:104EB00000AF78607B68002B01D1012342E07B6862
:104EC00093F84130DBB2002B06D17B68002283F8D7
:104ED00040207868FBF7C6FF7B68242283F84120D6
:104EE0007B681B68DA687B681B6822F40052DA6012
:104EF000786800F0A9FD7B681B681A697B681B68ED
:104F000022F490421A617B681B685A697B681B68AF
:104F100022F02A025A617B681B68DA687B681B688A
:104F200042F40052DA607B6800225A647B682022D7
:104F300083F841207B68202283F842207B6800228E
:104F40005A63002318460837BD4680BD80B58AB035
:104F500002AFF860B9603B601346FB8000237B61C1
:104F6000FB6893F84130DBB2202B75D1BB68002B76
:104F700002D0FB88002B01D101236EE0FB680022E8
:104F80005A64FB68212283F84120FCF77FF878619E
:104F9000FB68FA889A84FB68FA88DA84FB689B6865
:104FA000B3F5805F08D1FB681B69002B04D1002397
:104FB000FB61BB68BB6103E0BB68FB610023BB61B5
:104FC0002EE03B6800937B6900228021F86800F0A6
:104FD0000BFB0346002B05D0FB68202283F8412001
:104FE00003233AE0FB69002B0BD1BB691B881A46EF
:104FF000FB681B68C2F308025A60BB690233BB61DD
:1050000007E0FB691A78FB681B685A60FB6901338B
:10501000FB61FB68DB8C9BB2013B9AB2FB68DA84D4
:10502000FB68DB8C9BB2002BCBD13B6800937B6988
:1050300000224021F86800F0D7FA0346002B05D083
:10504000FB68202283F84120032306E0FB6820222E
:1050500083F84120002300E0022318462037BD4694
:1050600080BD80B584B000AFF860B9601346FB80A6
:10507000FB6893F84230DBB2202B12D1BB68002BC7
:1050800002D0FB88002B01D101230BE0FB6800223A
:105090001A63FB881A46B968F86800F0FEFA0346FE
:1050A00000E0022318461037BD4680BD80B5BAB077
:1050B00000AF78607B681B681B68C7F8E4307B68CA
:1050C0001B68DB68C7F8E0307B681B685B69C7F862
:1050D000DC300023C7F8D8300023C7F8D430D7F825
:1050E000E43003F00F03C7F8D830D7F8D830002BDE
:1050F0000FD1D7F8E43003F02003002B09D0D7F804
:10510000E03003F02003002B03D0786800F0DEFBD2
:105110005BE2D7F8D830002B00F0DE80D7F8DC3027
:1051200003F00103002B06D1D7F8E03003F49073AD
:10513000002B00F0D180D7F8E43003F00103002BFE
:105140000BD0D7F8E03003F48073002B05D07B68D8
:105150005B6C43F001027B685A64D7F8E43003F0DB
:105160000403002B0BD0D7F8DC3003F00103002B35
:1051700005D07B685B6C43F002027B685A64D7F809
:10518000E43003F00203002B0BD0D7F8DC3003F03F
:105190000103002B05D07B685B6C43F004027B6845
:1051A0005A64D7F8E43003F00803002B11D0D7F885
:1051B000E03003F02003002B05D1D7F8DC3003F0FA
:1051C0000103002B05D07B685B6C43F008027B6811
:1051D0005A647B685B6C002B00F0F281D7F8E430F6
:1051E00003F02003002B08D0D7F8E03003F02003B1
:1051F000002B02D0786800F069FB7B681B685B6954
:1052000003F04003402B0CBF01230023DBB2C7F89F
:10521000D4307B685B6C03F00803002B03D1D7F814
:10522000D430002B4FD0786800F071FA7B681B688F
:105230005B6903F04003402B41D17B681B6814334A
:10524000C7F89C30D7F89C3053E8003FC7F8983037
:10525000D7F8983023F04003C7F8D0307B681B683C
:105260001433D7F8D020C7F8A820C7F8A430D7F84F
:10527000A410D7F8A82041E80023C7F8A030D7F839
:10528000A030002BD9D17B68DB6B002B13D07B685F
:10529000DB6B7E4A1A657B68DB6B1846FCF79DF872
:1052A0000346002B16D07B68DB6B1B6D7A68D26BD4
:1052B000104698470EE0786804F005FC0AE078682C
:1052C00004F001FC06E0786804F0FDFB7B68002236
:1052D0005A6475E100BF73E17B681B6B012B40F0E2
:1052E0004F81D7F8E43003F01003002B00F0488121
:1052F000D7F8E03003F01003002B00F041810023C9
:10530000BB607B681B681B68BB607B681B685B6855
:10531000BB60BB687B681B685B6903F04003402B84
:1053200040F0B6807B68DB6B1B685B68A7F8BE301B
:10533000B7F8BE30002B00F045817B689B8DB7F835
:10534000BE209A4280F03E817B68B7F8BE20DA85A5
:105350007B68DB6BDB69B3F5807F00F088807B685E
:105360001B680C33C7F88830D7F8883053E8003F03
:10537000C7F88430D7F8843023F48073C7F8B83086
:105380007B681B680C33D7F8B820C7F89420C7F89F
:105390009030D7F89010D7F8942041E80023C7F850
:1053A0008C30D7F88C30002BD9D17B681B68143334
:1053B0007B677B6F53E8003F3B673B6F23F0010344
:1053C000C7F8B4307B681B681433D7F8B420C7F82B
:1053D0008020FB67F96FD7F8802041E80023BB6786
:1053E000BB6F002BE1D17B681B6814333B663B6EBF
:1053F00053E8003FFB65FB6D23F04003C7F8B03076
:105400007B681B681433D7F8B020FA66BB66B96EA8
:10541000FA6E41E800237B667B6E002BE3D17B684C
:10542000202283F842207B6800221A637B681B6875
:105430000C33FB64FB6C53E8003FBB64BB6C23F094
:105440001003C7F8AC307B681B680C33D7F8AC206E
:10545000BA657B65796DBA6D41E800233B653B6DAC
:10546000002BE3D17B68DB6B1846FBF746FF7B68BC
:1054700002225A637B689A8D7B68DB8D9BB2D31ABC
:105480009BB21946786800F0A3F89BE0D557000856
:105490007B689A8D7B68DB8D9BB2D31AA7F8CE30E0
:1054A0007B68DB8D9BB2002B00F08E80B7F8CE308E
:1054B000002B00F089807B681B680C33BB63BB6BDF
:1054C00053E8003F7B637B6B23F49073C7F8C830CD
:1054D0007B681B680C33D7F8C8207A643B64396C4E
:1054E0007A6C41E80023FB63FB6B002BE3D17B6804
:1054F0001B6814337B627B6A53E8003F3B623B6A64
:1055000023F00103C7F8C4307B681B681433D7F855
:10551000C4203A63FB62F96A3A6B41E80023BB623C
:10552000BB6A002BE3D17B68202283F842207B6892
:1055300000221A637B681B680C333B613B6953E8AC
:10554000003FFB60FB6823F01003C7F8C0307B68A6
:105550001B680C33D7F8C020FA61BB61B969FA69DE
:1055600041E800237B617B69002BE3D17B68022249
:105570005A63B7F8CE301946786800F029F823E06E
:10558000D7F8E43003F08003002B09D0D7F8E030DF
:1055900003F08003002B03D0786800F02FF914E0AB
:1055A000D7F8E43003F04003002B0ED0D7F8E030FA
:1055B00003F04003002B08D0786800F06FF904E096
:1055C00000BF02E000BF00E000BFE837BD4680BD7D
:1055D00080B483B000AF78600B467B8000BF0C378F
:1055E000BD465DF8047B704780B586B000AFF860BB
:1055F000B9603B601346FB713BE03B6AB3F1FF3F90
:1056000037D0FBF743FD02463B68D31A3A6A9A4209
:1056100002D33B6A002B01D103233AE0FB681B68ED
:10562000DB6803F00403002B23D0BB68802B20D061
:10563000BB68402B1DD0FB681B681B6803F0080388
:10564000082B16D100237B61FB681B681B687B61FC
:10565000FB681B685B687B617B69F86800F057F842
:10566000FB6808225A64FB68002283F8402001236B
:105670000FE0FB681B681A68BB681340BA689A425F
:105680000CBF01230023DBB21A46FB799A42B4D047
:10569000002318461837BD4680BD80B485B000AFE2
:1056A000F860B9601346FB80FB68BA689A62FB68D1
:1056B000FA889A85FB68FA88DA85FB6800225A64C2
:1056C000FB68222283F84220FB681B69002B07D06D
:1056D000FB681B68DA68FB681B6842F48072DA605A
:1056E000FB681B685A69FB681B6842F001025A613B
:1056F000FB681B68DA68FB681B6842F02002DA600E
:10570000002318461437BD465DF8047B704780B40B
:1057100095B000AF78607B681B680C337B637B6B54
:1057200053E8003F3B633B6B23F49073FB647B685F
:105730001B680C33FA6C3A64FB63F96B3A6C41E812
:105740000023BB63BB6B002BE5D17B681B68143364
:105750003B623B6A53E8003FFB61FB6923F00103B6
:10576000BB647B681B681433BA6CFA62BB62B96AAB
:10577000FA6A41E800237B627B6A002BE5D17B68F3
:105780001B6B012B19D17B681B680C33FB60FB681A
:1057900053E8003FBB60BB6823F010037B647B6869
:1057A0001B680C337A6CBA617B617969BA6941E82C
:1057B00000233B613B69002BE5D17B68202283F805
:1057C00042207B6800221A6300BF5437BD465DF853
:1057D000047B704780B584B000AF78607B689B6BBA
:1057E000FB60FB680022DA85FB680022DA84F86837
:1057F00004F069F900BF1037BD4680BD80B485B0A4
:1058000000AF78607B6893F84130DBB2212B3ED14A
:105810007B689B68B3F5805F14D17B681B69002BA4
:1058200010D17B681B6AFB60FB681B881A467B688B
:105830001B68C2F308025A607B681B6A9A1C7B686B
:105840001A6208E07B681B6A591C7A6811621A7830
:105850007B681B685A607B68DB8C9BB2013B9BB208
:105860007A681946D184002B0FD17B681B68DA68EF
:105870007B681B6822F08002DA607B681B68DA684C
:105880007B681B6842F04002DA60002300E00223DC
:1058900018461437BD465DF8047B704780B582B06A
:1058A00000AF78607B681B68DA687B681B6822F051
:1058B0004002DA607B68202283F84120786804F097
:1058C000EAF8002318460837BD4680BD80B58CB085
:1058D00000AF78607B6893F84230DBB2222B40F057
:1058E000AE807B689B68B3F5805F17D17B681B69CE
:1058F000002B13D10023FB627B689B6ABB627B6831
:105900001B685B689BB2C3F308039AB2BB6A1A8038
:105910007B689B6A9A1C7B689A6226E07B689B6A1C
:10592000FB620023BB627B689B68B3F5805F07D096
:105930007B689B68002B0AD17B681B69002B06D112
:105940007B681B685B68DAB2FB6A1A7008E07B68E8
:105950001B685B68DBB203F07F03DAB2FB6A1A7084
:105960007B689B6A5A1C7B689A627B68DB8D9BB262
:10597000013B9BB27A681946D185002B5DD17B68CB
:105980001B68DA687B681B6822F02002DA607B689B
:105990001B68DA687B681B6822F48072DA607B68B7
:1059A0001B685A697B681B6822F001025A617B6898
:1059B000202283F842207B6800225A637B681B6B9D
:1059C000012B35D17B6800221A637B681B680C337E
:1059D0007B617B6953E8003F3B613B6923F0100327
:1059E0007B627B681B680C337A6A3A62FB61F969F7
:1059F0003A6A41E80023BB61BB69002BE5D17B68B3
:105A00001B681B6803F01003102B0AD10023FB60F6
:105A10007B681B681B68FB607B681B685B68FB60BE
:105A2000FB687B689B8D19467868FFF7D1FD02E023
:105A3000786804F03CF8002302E0002300E0022331
:105A400018463037BD4680BD2DE9B04FC0B000AF1D
:105A5000C7F8F400D7F8F4301B681B6923F44050F2
:105A6000D7F8F430D968D7F8F4301A6840EA01035F
:105A70001361D7F8F4309A68D7F8F4301B691A43E9
:105A8000D7F8F4305B691A43D7F8F430DB69134375
:105A9000C7F8F830D7F8F4301B68DB6823F41641F8
:105AA00021F00C01D7F8F4301A68D7F8F8300B431E
:105AB000D360D7F8F4301B685B6923F44070D7F8E3
:105AC000F4309969D7F8F4301A6840EA0103536159
:105AD000D7F8F4301A688F4B9A4205D0D7F8F430D3
